:10000000B5C100000C9434190C945F190C948A1932
:100010000C94B5190C94E0190C940B1A0C94361A24
:100020000C94611ADCC20000AEC30000E9C30000FA
:10003000CEC100000C94A221CAC10000C8C10000BA
:10004000C6C10000C4C10000C2C10000C0C10000A0
:10005000BEC10000BCC10000BAC100000C948C1AE3
:10006000B6C100000C94391E0C946F1EB0C1000084
:10007000AEC10000ACC10000AAC10000A8C10000D0
:10008000A6C10000A4C10000A2C10000A0C10000E0
:100090000C94C51E0C94FB1E9AC1000098C1000070
:1000A00096C1000094C1000092C1000090C1000000
:1000B0008EC100008CC100008AC1000088C1000010
:1000C00086C1000084C100000C942B220C94511FA7
:1000D0000C94871F7CC100000C94DD1F0C9413202E
:1000E00076C100000E19D818E018EC18F9181A1982
:1000F0002719BD1BC21BC71BD11BDB1B541CE51BD7
:10010000ED1BF51BFF1B091C131C221C2C1C541C73
:10011000361C401C4A1C781C7B1C6A1C6E1C741C00
:10012000B21C7F1C831C891C8D1C911C971C9B1C62
:100130009F1CB21CA51CA91CAD1C3D2AFB2B652CC9
:10014000682C3F2B722BFC291D2AE029422C312CD4
:100150003E2C682C682C682CCB2900000A0B020965
:100160000C0D0E0807030401000000000000000051
:10017000000000000000000000000000000000007F
:10018000000000000000121110000000000000003C
:10019000000000000000000000000000000000005F
:1001A0000102102020080810204010204080020189
:1001B000020108040201010204081020408080406E
:1001C000201008040201800402018040201008046D
:1001D000020108040201010204081020408001020B
:1001E00004081020408005050505070508080808D3
:1001F000020202020A0A08080404040401010101BF
:1002000001010101030303030303030304070707B9
:100210000C0C0C0C0C0C0C0C02020202060606065E
:10022000060606060B0B0B0B0B0B0B0B000022003C
:10023000250028002B002E003100340002010000B0
:10024000050108010B0100002100240027002A00FD
:100250002D003000330001010000040107010A01F4
:1002600002001D3A2774694E53E8F5D2CF9C81A64F
:10027000BBCDD0F7EAB9A4839E25381F02514C6B41
:1002800076879ABDA0F3EEC9D46F7255481B06213C
:100290003C4A57706D3E230419A2BF9885D6CBEC1B
:1002A000F1130E2934677A5D40FBE6C1DC8F92B50D
:1002B000A8DEC3E4F9AAB7908D362B0C11425F7803
:1002C000659489AEB3E0FDDAC77C61465B08153200
:1002D0002F5944637E2D30170AB1AC8B96C5D8FFD9
:1002E000E2263B1C01524F6875CED3F4E9BAA780D1
:1002F0009DEBF6D1CC9F82A5B8031E3924776A4DB9
:1003000050A1BC9B86D5C8EFF24954736E3D2007BF
:100310001A6C71564B1805223F8499BEA3F0EDCAA2
:10032000D735280F12415C7B66DDC0E7FAA9B4938C
:100330008EF8E5C2DF8C91B6AB100D2A3764795E7A
:1003400043B2AF8895C6DBFCE15A47607D2E33147B
:10035000097F6245580B16312C978AADB0E3FED960
:10036000C400981E241FB01F3C20A82011241FBECB
:10037000CFEFD1E2DEBFCDBF00E00CBF14E0A0E0C4
:10038000B2E0EAE1F5E600E00BBF02C007900D9293
:10039000A83AB107D9F729E0A8EAB4E001C01D9254
:1003A000A236B207E1F711E0C6EBD1E000E006C0EB
:1003B00021970109802FFE010E940F31C13BD10717
:1003C00080E00807A9F70E94F02D0C948B3218CE1C
:1003D0009CB195FB882780F994FF03C081110FC061
:1003E00002C0882361F08091AC049091AD04A0918B
:1003F000AE04B091AF040196A11DB11D0BC0809158
:10040000AC049091AD04A091AE04B091AF040197FB
:10041000A109B1098093AC049093AD04A093AE04FC
:10042000B093AF0408959CB194FB882780F995FFA1
:1004300003C0882379F002C081110CC08091AC0404
:100440009091AD04A091AE04B091AF040196A11DAE
:10045000B11D0BC08091AC049091AD04A091AE048D
:10046000B091AF040197A109B1098093AC049093B6
:10047000AD04A093AE04B093AF04089599B193FB7B
:10048000882780F992FF03C081110FC002C0882322
:1004900061F08091BA049091BB04A091BC04B0912A
:1004A000BD040196A11DB11D0BC08091BA049091AD
:1004B000BB04A091BC04B091BD040197A109B1098E
:1004C0008093BA049093BB04A093BC04B093BD0482
:1004D000089599B192FB882780F993FF03C0882380
:1004E00079F002C081110CC08091BA049091BB04D4
:1004F000A091BC04B091BD040196A11DB11D0BC01B
:100500008091BA049091BB04A091BC04B091BD0449
:100510000197A109B1098093BA049093BB04A093F9
:10052000BC04B093BD0408952CB1822F807890E074
:10053000880F892F881F990B26FF03C0892B79F418
:1005400002C0019761F48091C8049091C904A09100
:10055000CA04B091CB040196A11DB11D0BC08091BE
:10056000C8049091C904A091CA04B091CB0401972A
:10057000A109B1098093C8049093C904A093CA0447
:10058000B093CB0408952CB126FB882780F990E026
:1005900027FF03C0019779F402C0892B61F4809191
:1005A000C8049091C904A091CA04B091CB040196EB
:1005B000A11DB11D0BC08091C8049091C904A091E8
:1005C000CA04B091CB040197A109B1098093C80472
:1005D0009093C904A093CA04B093CB0408951F92CA
:1005E0000F920FB60F9211242F933F934F935F9367
:1005F0006F937F938F939F93AF93BF9383B185FB4B
:10060000992790F9292F30E086FB882780F94091BF
:10061000EC045091ED042417350779F5482F50E08C
:100620005093EB044093EA04882359F0232B61F0A4
:100630004091E4045091E5046091E6047091E70470
:1006400066C02130310561F48091E4049091E504A5
:10065000A091E604B091E7040196A11DB11D35C03B
:100660004091E4045091E5046091E6047091E70440
:1006700041505109610971093FC03093ED04209345
:10068000EC042130310551F58823A1F08091E40478
:100690009091E504A091E604B091E7040196A11DB4
:1006A000B11D8093E4049093E504A093E604B09315
:1006B000E70447C08091E4049091E504A091E6042A
:1006C000B091E7040197A109B1098093E4049093E4
:1006D000E504A093E604B093E70427C04091E40446
:1006E0005091E5046091E6047091E70481110FC018
:1006F0004F5F5F4F6F4F7F4F4093E4045093E5048B
:100700006093E6047093E7049923D9F00EC041503A
:100710005109610971094093E4045093E504609321
:10072000E6047093E70491110CC08091E404909169
:10073000E504A091E604B091E7040196A11DB11D66
:100740000BC08091E4049091E504A091E604B0917F
:10075000E7040197A109B1098093E4049093E504AB
:10076000A093E604B093E704BF91AF919F918F915E
:100770007F916F915F914F913F912F910F900FBE9D
:100780000F901F9018951F920F920FB60F92112481
:100790008F939F93AF93BF93809106018170909147
:1007A000030190FF03C081110FC002C0813061F4CA
:1007B0008091D6049091D704A091D804B091D90427
:1007C0000196A11DB11D0BC08091D6049091D70454
:1007D000A091D804B091D9040197A109B1098093DF
:1007E000D6049093D704A093D804B093D904BF91B2
:1007F000AF919F918F910F900FBE0F901F90189502
:100800001F920F920FB60F9211248F939F93AF9365
:10081000BF938091030181709091060190FF03C006
:10082000813079F402C081110CC08091D60490917E
:10083000D704A091D804B091D9040196A11DB11D8F
:100840000BC08091D6049091D704A091D804B091A8
:10085000D9040197A109B1098093D6049093D704D4
:10086000A093D804B093D904BF91AF919F918F9179
:100870000F900FBE0F901F9018950F931F93CF935B
:10088000DF938C018EE0809FE001819FD00D1124C9
:10089000C855DB4F798368835B834A83888199815C
:1008A00060E00E94B31C8A819B8160E00E94B31CBF
:1008B0008881998161E00E94EF1C8A819B8161E0BF
:1008C0000E94EF1C0230110509F47FC044F40115A9
:1008D0001105E9F00130110509F448C0BEC003302C
:1008E000110509F4A6C00430110509F0B6C08091C5
:1008F000680081608093680080916B0080628093C3
:100900006B0080916B00806480936B00A6C0809127
:10091000A8049091A90402978431910540F4FC0148
:10092000E15AFC4F8081082E000C990B02C08FEF1A
:100930009FEF41E050E068EE71E00E94C0188091A6
:10094000AA049091AB0402978431910540F4FC0114
:10095000E15AFC4F8081082E000C990B02C08FEFEA
:100960009FEF41E050E063E172E05DC08091B6042A
:100970009091B70402978431910540F4FC01E15A4B
:10098000FC4F8081082E000C990B02C08FEF9FEF67
:1009900041E050E06EE372E00E94C0188091B8041C
:1009A0009091B90402978431910540F4FC01E15A19
:1009B000FC4F8081082E000C990B02C08FEF9FEF37
:1009C00041E050E069E672E02EC08091C40490914D
:1009D000C50402978431910540F4FC01E15AFC4FB3
:1009E0008081082E000C990B02C08FEF9FEF41E031
:1009F00050E064E972E00E94C0188091C6049091B2
:100A0000C70402978431910540F4FC01E15AFC4F80
:100A10008081082E000C990B02C08FEF9FEF41E000
:100A200050E063EC72E0DF91CF911F910F910C9435
:100A3000C01880916800846080936800809168008D
:100A400082608093680080916D00816080936D006A
:100A500080916C00826080936C00DF91CF911F9138
:100A60000F9108952EE0269FF001279FF00D11248D
:100A7000E855FB4F648175818681978108956623CF
:100A800011F061E001C060E00C94B31C662311F02A
:100A900061E001C060E00C94EF1C2F923F924F92F6
:100AA0005F926F927F928F929F92AF92BF92CF92FE
:100AB000DF92EF92FF920F931F93CF93DF93CDB707
:100AC000DEB7A4970FB6F894DEBF0FBECDBF60E0CF
:100AD00070E0CB01C7DF0E94222F2091DE0230910F
:100AE000DF024091E0025091E1020E9477306D8771
:100AF0007E878F87988B60930C0970930D09809384
:100B00000E0990930F09C0903809D0903909E090F0
:100B10003A09F0903B09C701B6010E94222F2B0130
:100B20003C012091EA023091EB024091EC0250919D
:100B3000ED020E94F02E87FF0BC0F7FC09C08090E9
:100B4000E2029090E302A090E402B090E50203C0BC
:100B5000812C912C54018092100990921109A0923D
:100B60001209B092130920E030E040E85FE36091A1
:100B7000E6027091E7028091E8029091E9020E94FA
:100B80008B2E9B01AC01C301B2010E94733087FD23
:100B900009C0109238091092390910923A0910923E
:100BA0003B090DC02FEFC21AD20AE20AF20AC09224
:100BB0003809D0923909E0923A09F0923B09409005
:100BC000200950902109609022097090230980919A
:100BD000240990912509A0912609B0912709898BB4
:100BE0009A8BAB8BBC8B8091280990912909A0919D
:100BF0002A09B0912B098D8B9E8BAF8BB88F2091DA
:100C0000BA023091BB024091BC025091BD02C501B5
:100C1000B4010E9477306B017C012091BE023091BB
:100C2000BF024091C0025091C102C301B2010E94B3
:100C300077304B015C012091C2023091C302409198
:100C4000C4025091C50269897A898B899C890E9466
:100C500077309B01AC01C501B4010E948C2E4B0181
:100C60005C012091C6023091C7024091C8025091A8
:100C7000C9026D897E898F89988D0E9477309B018A
:100C8000AC01C501B4010E948C2E9B01AC01C701CF
:100C9000B6010E948B2E6B017C0160931409709346
:100CA0001509809316099093170980902A03909054
:100CB0002B03A0902C03B0902D03A50194010E945A
:100CC0007330181684F080902E0390902F03A0901C
:100CD0003003B0903103A5019401C701B6010E9411
:100CE000F02E87FF09C080921C0990921D09A092E6
:100CF0001E09B0921F0908C0C0921C09D0921D099C
:100D0000E0921E09F0921F0920911A0330911B03F3
:100D100040911C0350911D03C301B2010E94773022
:100D20004B015C0120911E0330911F034091200371
:100D30005091210369897A898B899C890E94773037
:100D40009B01AC01C501B4010E948C2E4B015C01DA
:100D500020912203309123034091240350912503D5
:100D60006D897E898F89988D0E9477309B01AC01B7
:100D7000C501B4010E948C2E4B015C0120911C091D
:100D800030911D0940911E0950911F0960913E0349
:100D900070913F0380914003909141030E9477300E
:100DA0009B01AC01C501B4010E948C2E9B01AC01DA
:100DB0006D857E858F8598890E948B2E698B7A8BB5
:100DC0008B8B9C8B20912603309127034091280325
:100DD00050912903C701B6010E94F02E682F661FAB
:100DE0006627661F84E052DEA0901409B0901509B2
:100DF000C0901609D0901709E090D602F090D70263
:100E00000091D8021091D9029701A801B501C6013D
:100E10000E947330181694F0E0904203F090430360
:100E200000914403109145039701A801B501C60143
:100E30000E94F02E87FD02C07501860120914603B5
:100E4000309147034091480350914903B701C801CD
:100E50000E9477300E945D2F6B017C01DDD38111F0
:100E60001FC0C701B601AFD381111AC020E030E026
:100E700040E853E4C701B6010E94772F6B017C0163
:100E80005B01870120E030E0A9010E94F02E87FF7E
:100E90000BC0C701B60190580E94F42E619508C09E
:100EA000A12CB12C00E010E0B501C8010E94F42E85
:100EB00070E08091DA020E94961B80911C0990914B
:100EC0001D09A0911E09B0911F098D8B9E8BAF8BC0
:100ED000B88F8091280990912909A0912A09B09191
:100EE0002B09898F9A8FAB8FBC8F809124099091A9
:100EF0002509A0912609B09127098D8F9E8FAF8F6C
:100F0000B8A38091200990912109A0912209B09164
:100F1000230989A39AA3ABA3BCA30AEB12E0DE01C9
:100F20001196BE87AD87212C312CF801E858FF4F70
:100F300020813181428153816D897E898F89988D8D
:100F40000E9477306B017C01F80120893189428948
:100F5000538969897A898B899C890E9477309B01A2
:100F6000AC01C701B6010E948C2E6B017C01F80117
:100F7000EC5AFF4F2081318142815381698D7A8DF6
:100F80008B8D9C8D0E9477304B015C01F801E85BF2
:100F9000FF4F20813181428153816D8D7E8D8F8DF8
:100FA00098A10E9477302B013C01D801DC962D914D
:100FB0003D914D915C91DF9769A17AA18BA19CA194
:100FC0000E9477309B01AC01C301B2010E948C2EBC
:100FD0009B01AC01C501B4010E948C2E9B01AC01A8
:100FE000C701B6010E948C2EED85FE856193719339
:100FF00081939193FE87ED87FFEF2F1A3F0A0C5FD5
:101000001F4F23E02216310409F08FCFE09102092F
:10101000F091030980819181A281B38180931809A5
:1010200090931909A0931A09B0931B0989819A8199
:10103000AB81BC818093200990932109A093220960
:10104000B09323098D819E81AF81B8858093240957
:1010500090932509A0932609B093270989859A853D
:10106000AB85BC858093280990932909A0932A0910
:10107000B0932B0982E090E00E946C18E091020985
:10108000F0910309408151816281738180E090E099
:101090000E9468186091F3087091F4088091F50837
:1010A0009091F6080E94202F6B017C016091F70857
:1010B0007091F8088091F9089091FA080E94202F09
:1010C00020E030E040E85FE40E9477309B01AC0113
:1010D000C701B6010E948C2E26EA3BE944E45BE39B
:1010E0000E947730AB01BC0181E090E00E9468185B
:1010F0008090FB089090FC08A090FD08B090FE083E
:1011000020E030E040E85FEBC501B4010E94F02E22
:101110000091020910910309882319F1D801CD909B
:10112000DD90ED90FC90A7019601C501B4010E94ED
:101130008B2E4B015C0120E030E040E054E3C7011E
:10114000B6010E9477309B01AC01C501B4010E9439
:101150007330181634F083E793E090935708809328
:10116000560880910109882331F083E793E090933A
:101170005708809356088091E7089091E808A0915D
:10118000E908B091EA08BC01CD016F5F7F4F8F4F36
:101190009F4F6093E7087093E8088093E908909365
:1011A000EA086115710581059105A9F4C090EB0865
:1011B000D090EC08E090ED08F090EE08BFEFCB1A6D
:1011C000DB0AEB0AFB0AC092EB08D092EC08E09233
:1011D000ED08F092EE08C090EF08D090F008E09093
:1011E000F108F090F2080E94202FA70196010E94BA
:1011F00077304B015C016091EB087091EC088091B5
:10120000ED089091EE080E94202FA70196010E9400
:10121000773020E030E040E85FE40E9477309B01C7
:10122000AC01C501B4010E948C2EF801608371836A
:10123000828393838091F3089091F408A091F5083C
:10124000B091F6080196A11DB11D8093F30890930B
:10125000F408A093F508B093F608892B8A2B8B2B02
:1012600099F48091F7089091F808A091F908B0914D
:10127000FA080196A11DB11D8093F7089093F80814
:10128000A093F908B093FA08A4960FB6F894DEBFBD
:101290000FBECDBFDF91CF911F910F91FF90EF90C7
:1012A000DF90CF90BF90AF909F908F907F906F9086
:1012B0005F904F903F902F900895CF92DF92EF92E2
:1012C000FF920F931F93CF93DF9384E090E044D17C
:1012D000E6E5F8E086EBDF011D928A95E9F78FEFEE
:1012E00098E097838683C2E0D9E0D0939708C093B3
:1012F00096080FEE18E0158B048BF093C108E0936D
:10130000C008F583E48321E030E0DC012D933C93B9
:1013100087E893E09387828724E039E03983288344
:1013200040E050E064E372E44093FB085093FC0813
:101330006093FD087093FE0846EA5BE964E47BE392
:10134000D8014D935D936D937C931397C5EDD8E0D1
:1013500084E99FE8A9E2BCEB88839983AA83BB83D5
:101360008EE89EE1AAE7B0E58093D9089093DA0869
:10137000A093DB08B093DC0884E497E3A2E1B7E430
:101380008093DD089093DE08A093DF08B093E00817
:1013900081E29AE7A2E7BAE88093E1089093E20835
:1013A000A093E308B093E408A6E0B5E0B383A2837A
:1013B000E0E0F5E01196FC93EE9385E494E09183F0
:1013C0008083938382839583848385EE98E015964A
:1013D0009C938E9314971396DC93CE931297179643
:1013E0003C932E93169724E1ECE0F9E0DF011D9287
:1013F0002A95E9F7C0E2D9E026E2FE0111922A958A
:10140000E9F7EEEEF4E022E1DF011D922A95E9F71B
:10141000DC01ED93FC9380E190E0918380838AE985
:1014200092E0938382838AE792E09583848386E3C4
:1014300092E0978386838AE092E09187808711E02B
:101440001DA3C12CD12C7601C394C8A2D9A2EAA2B3
:10145000FBA242E050E063E070E080E090E00DDA53
:10146000188E198E1A8E1B8E1CA3CC8EDD8EEE8EDE
:10147000FF8E61E084E003DB0AEB12E061E0F8013B
:1014800080A10E94B31CF80180AD91ADA2ADB3ADB7
:1014900088839983AA83BB838C839D83AE83BF8318
:1014A00088879987AA87BB87DF91CF911F910F917A
:1014B000FF90EF90DF90CF90089580914009909138
:1014C0004109A0914209B09143090197A105B105D5
:1014D00061F482E090E0A0E0B0E080934009909356
:1014E0004109A0934209B093430980913C0990912E
:1014F0003D09A0913E09B0913F090197A105B105B1
:1015000061F482E090E0A0E0B0E080933C09909329
:101510003D09A0933E09B0933F09089560E070E053
:1015200080E89FE7089560E070E080E89FE7089515
:1015300060E070E080E89FEF089560E070E080E890
:101540009FEF089560E070E080EC9FEF089560E009
:1015500070E080EC9FEF0895F5DF6093520970937F
:1015600053098093540990935509F1DF609346091C
:10157000709347098093480990934909CFDF60939E
:101580004E0970934F098093500990935109CBDF16
:1015900060934A0970934B0980934C0990934D09CD
:1015A000C7DF609356097093570980935809909349
:1015B0005909C3DF60935A0970935B0980935C09F2
:1015C00090935D090895CF92DF92EF92FF92CF93AF
:1015D0006B017C0120914A0930914B0940914C09E3
:1015E00050914D090E94F02EC1E0882371F02091A6
:1015F0005A0930915B0940915C0950915D09C7011E
:10160000B6010E94F02E8111C0E08C2FCF91FF9087
:10161000EF90DF90CF900895CF93C1E09B01AC0194
:101620000E94F02E811101C0C0E08C2FCF9108954F
:10163000EF92FF920F931F93CF93DF93DC01EA01A8
:10164000F90114968D919C91159712960D911C910C
:101650001397080F191F2881398118964D915C91B5
:1016600019974217530728F04D915C911197452B1C
:1016700039F17801E21AF30A18964D915C911997A5
:10168000481B590B4E0D5F1D4617570794F1A901D2
:10169000460F571F40175107E0F0F182E082338375
:1016A00022836E197F0975836483161617061CF44E
:1016B000382F292F02C030E020E03683278313C063
:1016C00018968D919C911997821B930B86179707FB
:1016D00084F071836083338322831582148217829E
:1016E000168288819981680F791F7983688380E0E9
:1016F00001C081E0DF91CF911F910F91FF90EF909A
:101700000895CF92DF92EF92FF92CF93DF936B0118
:101710007C0184E48C9DE0018D9DD00D1124CE5E72
:10172000DA4F8AA99BA9009721F00E94DA311BAAFF
:101730001AAA84E48C9DF0018D9DF00D1124EE5EBB
:10174000FA4F86A997A9009711F00E94DA3184E434
:101750008C9DF0018D9DF00D1124EE5EFA4F138AE1
:10176000128A168A178A108E118E128E138E148E7C
:10177000158E168E178E10A211A281E090E093A311
:1017800082A315A214A216A217A210A611A613A630
:1017900012A615A614A616A617A610AA11AA13AA71
:1017A00012AA15AA14AA17AA16AA11AE10AE12AE42
:1017B00013AE14AE15AEDF01DE961D921D921D9282
:1017C0001C921397EE5BFF4F11821082DF91CF9135
:1017D000FF90EF90DF90CF9008950F931F93CF93DA
:1017E000DF93EB01DC018D919C91FC01A681B78117
:1017F000E881F98123E0EE0FFF1F2A95E1F71296A9
:101800002D913C911397E20FF31F00811181AC855C
:10181000BD859D01220F331FDC0112968D919C9195
:101820001397D901A80FB91F8D919C9124813581FF
:10183000232B19F461E070E002C062E070E0689F61
:101840009001699F300D789F300D1124888599850E
:10185000289FB001299F700D389F700D1124EC81D5
:10186000FD812E9FC0012F9F900D3E9F900D112452
:10187000800F911FFA019183808373836283DF91CC
:10188000CF911F910F9108952F923F924F925F92A7
:101890006F927F928F929F92AF92BF92CF92DF9280
:1018A000EF92FF920F931F93CF93DF9300D000D05E
:1018B000CDB7DEB7DC011496ED91FC911597019040
:1018C000F081E02D808591859A838983A281B381FF
:1018D000BC83AB83FB0181909190A190B1908F016B
:1018E000C12CD12C7601C814D904EA04FB040CF0F5
:1018F0005FC0D80114964D905D906D907C901797C5
:1019000018964D915D916D917C911B97F8017096A1
:10191000FE83ED83F801A081B18183E0AA0FBB1F94
:101920008A95E1F7E981FA8182819381A80FB91F35
:101930002D903C901197F80124853585220F331F97
:101940008B819C81280F391FF90100811181149628
:101950008D919C911597892B19F481E090E002C03C
:1019600082E090E0809F9001819F300D909F300D2C
:101970001124249F8001259F100D349F100D1124E8
:10198000249DC001259D900D349D900D1124A8012A
:101990006D817E81820D931D0E9472328D819E81A8
:1019A000080F191F9FEFC91AD90AE90AF90A9BCF34
:1019B00026960FB6F894DEBF0FBECDBFDF91CF9154
:1019C0001F910F91FF90EF90DF90CF90BF90AF905D
:1019D0009F908F907F906F905F904F903F902F904F
:1019E0000895CF93DF93DB01A65BBC4F2C9122239C
:1019F00069F024E4269FF001279FF00D1124EE5E8C
:101A0000FA4FEF0119922A95E9F71C9224E4269FD8
:101A1000F001279FF00D1124EE5EFA4F148215821B
:101A2000168217821186108613861286118A108AF2
:101A300017861686DF91CF9164CE2F923F924F92F8
:101A40005F926F927F928F929F92AF92BF92CF924E
:101A5000DF92EF92FF920F931F93CF93DF93CDB757
:101A6000DEB728970FB6F894DEBF0FBECDBF6B016F
:101A70007C011A0184E48C9D90018D9D300D112410
:101A80002E5E3A4FF90184819581A681B781892B19
:101A90008A2B8B2B09F4B8C0A12CB12C412C512CD2
:101AA000320138872F83C90104969A838983D9012B
:101AB0001896BC83AB83E981FA8180819181A281F0
:101AC000B381481659066A067B0694F5AB81BC8142
:101AD000ED91FC91EA0DFB1D228133818901812C5E
:101AE000912C82149304C4F4D801ED91FC913097A9
:101AF00069F0848195812D833E830E94DA31F8015B
:101B0000808191810E94DA313E812D81FFEF8F1A11
:101B10009F0A0E5F1F4FE5CFC9010E94DA318FEF98
:101B2000481A580A680A780A94E0A90EB11CC3CF73
:101B3000AF81B88518968D919C9119970E94DA31E2
:101B4000EF81F88582859385892B59F1A12CB12CE1
:101B5000812C912C84E48C9D80018D9D100D11248D
:101B6000045E1A4F8214930484F4D801ED91FC9121
:101B7000EA0DFB1D848195810E94DA31BFEF8B1A3B
:101B80009B0AEEE0AE0EB11CEDCF84E48C9DF0011B
:101B90008D9DF00D1124EE5EFA4F828593850E9493
:101BA000DA3184E48C9D90018D9D300D11248901E2
:101BB0000E5E1A4FD80150968D919C9151970E94BC
:101BC000DA31F801868597850E94DA31C701B601BE
:101BD00098DDC701B60128960FB6F894DEBF0FBE98
:101BE000CDBFDF91CF911F910F91FF90EF90DF90CC
:101BF000CF90BF90AF909F908F907F906F905F90AD
:101C00004F903F902F90EDCE28960FB6F894DEBF00
:101C10000FBECDBFDF91CF911F910F91FF90EF903D
:101C2000DF90CF90BF90AF909F908F907F906F90FC
:101C30005F904F903F902F90089524E4269FF001ED
:101C4000279FF00D1124EE5EFA4F82899389049745
:101C5000029758F485E090E0938B828B8FEF9FEF93
:101C6000DC01828F938FA48FB58F08952F923F92BE
:101C70004F925F926F927F928F929F92AF92BF929C
:101C8000CF92DF92EF92FF920F931F93CF93DF9348
:101C9000CDB7DEB7E0970FB6F894DEBF0FBECDBF6D
:101CA0009AA389A31B016A012801390184E4849D58
:101CB0008001859D100D112498012E5E3A4F790107
:101CC000D9014D925D926D927C921397AB01C30145
:101CD000B201B3DEF801EA5EFA4FD6014D915D9193
:101CE0006D917D918D01CA0140835183628373831D
:101CF00064E070E00E942B31F70191878087892B87
:101D000009F499C11E8E1D8E198E1A8E1B8E1C8E83
:101D1000F8A2EF8E97012C5F3F4F38A72FA32C5FBF
:101D20003F4F3AA729A7EFA1F8A580819181A28111
:101D3000B381298D3A8D4B8D5C8D281739074A0761
:101D40005B070CF0E4C0A9A5BAA58D919C912D8DDF
:101D50003E8D280F391F3A8B298BD801ED91FC91CC
:101D6000EE0FFF1FA9A1BAA18D919C91E80FF91F59
:101D700080819181F90191838083D80114962D91FE
:101D80003D914D915C9117972BA33CA34DA35EA36E
:101D9000085F1F4F62E070E0C1010E942B31E989AA
:101DA000FA8993838283892B09F445C11D8A1E8A8F
:101DB0001F8A188E2D893E894F89588D8BA19CA131
:101DC000ADA1BEA1281739074A075B070CF08CC0EC
:101DD000D801ED90FC90EE0CFF1CE989FA89C280D5
:101DE000D380CE0CDF1C68E070E081E090E00E94C0
:101DF0002B31D6018D939C93E989FA898281938155
:101E0000FC01EE0DFF1DC080D180C114D10409F486
:101E100012C1D80114964D915D916D917C911797E7
:101E2000CA01F6014083518362837383085F1F4FA9
:101E300064E070E00E942B31D60115969C938E933E
:101E40001497892B09F4F7C01C8A1B8A812C912CCA
:101E50005401F60180819181A281B381881699068F
:101E6000AA06BB06A4F5F601E480F5802B893C891F
:101E7000E20EF31EF801DE01119680E101900D9251
:101E80008A95E1F7005F1F4FA701BE016F5F7F4F8B
:101E9000A9A1BAA114968D919C9115979EDCF6018B
:101EA00026813781D70112968D919C911397820FCD
:101EB000931F97838683BFEF8B1A9B0AAB0ABB0ADB
:101EC0002B893C892C5F3F4F3C8B2B8BC2CF2D89BC
:101ED0003E894F89588D2F5F3F4F4F4F5F4F2D8B5E
:101EE0003E8B4F8B588F66CF298D3A8D4B8D5C8DF5
:101EF0002F5F3F4F4F4F5F4F298F3A8F4B8F5C8F34
:101F00002D8D3E8D2C5F3F4F3E8F2D8F0CCF6EE081
:101F100070E0C1010E942B31AF8DB8A11B969C933C
:101F20008E931A97812C912CA12CB12CC12CD12CE1
:101F300024E4249DC001259D900D11249C01245E64
:101F40003A4F3A8B298B21E030E0A214B3040CF015
:101F50004AC0D8014D915D916D917D918D01CA016D
:101F6000E989FA89E080F180E80CF91C57FD63C02B
:101F7000D70111963C932E930097A1F02FA738AB71
:101F80004BA75CA76DA77EA70E944531F7019583FB
:101F900084832FA538A94BA55CA56DA57EA5892BAB
:101FA00031F449C0D70115961C921E921497F7017F
:101FB0005383428384819581978386839187808729
:101FC0001386128681E090E0452B462B472B11F4B7
:101FD00080E090E0C80ED91EFFEFAF1ABF0A4EE0B6
:101FE000840E911CB2CF84E4849D8001859D100DE8
:101FF00011240E5E1A4FD8011D961C921E921C973A
:10200000C60133E0880F991F3A95E1F70E944531E8
:10201000F801918B808B892B71F0C601880F991F75
:102020000E944531D8011F969C938E931E97892B51
:1020300011F080E005C0A101C301B201FEDC81E026
:10204000E0960FB6F894DEBF0FBECDBFDF91CF9103
:102050001F910F91FF90EF90DF90CF90BF90AF90C6
:102060009F908F907F906F905F904F903F902F90B8
:1020700008952F923F924F925F926F927F928F922C
:102080009F92AF92BF92CF92DF92EF92FF920F9307
:102090001F93CF93DF93CDB7DEB768970FB6F89451
:1020A000DEBF0FBECDBF9C8B8B8BDB0149015A017C
:1020B00024E4289DC001299D900D11249C012E5ED1
:1020C0003A4F79012D913C911197F701358B248B73
:1020D000FC01E85DFA4F14964D915D916D917C91F4
:1020E00017974083518362837383FC01E45DFA4F49
:1020F00018964D915D916D917C911B974083518312
:1021000062837383FC01E05DFA4F1C964D915D91F3
:102110006D917C911F974083518362837383FC018F
:10212000E05CFA4F50965C91509751964C915197C4
:1021300052963C91529753962C91539750834183DA
:10214000328323838D010C5E1F4F852F942F181629
:1021500019060CF068C0880F991F880F991F0E94FC
:102160004531D701D3969C938E93D297892B09F44E
:10217000BCC0212C312C412C512C32019701225D05
:102180003F4F3E8B2D8B2C5F3F4F388F2F8B2E5F19
:102190003F4F3A8B298BB301A2012FEF421A520A0B
:1021A000620A720AED89FE8980819181A281B381E0
:1021B000481759076A077B074CF5AF89B88DCD9052
:1021C000DC90C20CD31CF801DE01119680E1019075
:1021D0000D928A95E1F7005F1F4FA601BE016F5F68
:1021E0007F4FEB89FC8984819581F7DAA989BA89C7
:1021F0008D919C911197F60122813381820F931F5B
:102200008D939C93F4E02F0E311CC5CFD701D4964B
:102210008D919C91D5970E944531F70197AB86AB84
:10222000892B09F462C0F80180819181A281B38178
:1022300024E4289DF001299DF00D1124EE5EFA4F53
:10224000AC01BD014D7F21E030E0452B462B472BF3
:1022500011F020E030E033A322A324E4289DF00114
:10226000299DF00D1124EE5EFA4F0197A109B109E5
:1022700021E030E00297A105B10510F020E030E048
:1022800035A324A384E4889DF001899DF00D1124D9
:10229000CF01885C9A4FD80114964D915D916D9154
:1022A0007C911797DC014D935D936D937C9313970D
:1022B000EE5EFA4F868D978DA0A1B1A1B7FF10C039
:1022C000B095A095909581959F4FAF4FBF4F82AF2E
:1022D00093AFA4AFB5AF168E178E10A211A20AC08D
:1022E00012AE13AE14AE15AE05C0C501B40109DAC5
:1022F00081E001C080E068960FB6F894DEBF0FBEA3
:10230000CDBFDF91CF911F910F91FF90EF90DF90A4
:10231000CF90BF90AF909F908F907F906F905F9085
:102320004F903F902F900895CF92DF92EF92FF92BF
:10233000CF93DF9310929A0524E4269FF001279F04
:10234000F00D1124EE5EFA4F15A614A620E030E041
:10235000C12CD12CDF011A96C1E0D0E0C416D506FD
:10236000D4F4ED91FC911197E20FF31FE280F3801A
:102370001E141F0454F4E480F580F782E682F1868F
:10238000E08613861286D183C083EFEFCE1ADE0A71
:10239000225F3F4FE3CF24E4269FF001279FF00DFB
:1023A0001124EE5EFA4F13A612A611AE10AEDF0195
:1023B000DE961D921D921D921C92139782E090E072
:1023C000938B828BDF91CF91FF90EF90DF90CF9036
:1023D000089524E4269FF001279FF00D1124EE5E5E
:1023E000FA4F138A128A29CB24E4269FF001279FF3
:1023F000F00D1124EE5EFA4F8289938981309105A8
:10240000C8F08530910518F0059769F008958FEFB1
:102410009FEFDC01828F938FA48FB58F85E090E0D2
:10242000938B828B08958FEF9FEFDC01828F938FC8
:10243000A48FB58F089524E4249FF001259FF00D0B
:102440001124EE5EFA4F2EE0AC01249FC001259FBF
:10245000900D11240284F385E02DE80FF91F81E02F
:1024600080939A05828593859187808740855185E1
:102470002681378181E090E04217530711F080E018
:1024800090E09183808308952F923F924F925F92C4
:102490006F927F928F929F92AF92BF92CF92DF9274
:1024A000EF92FF920F931F93CF93DF93CDB7DEB7D9
:1024B000C255D1090FB6F894DEBF0FBECDBF21962D
:1024C0009FAF8EAF21974BA75CA76DA77EA7480152
:1024D000590184E4889D8001899D100D1124F80123
:1024E000EE5EFA4F2285338527963FAF2EAF2797B2
:1024F00082899389029709F060C186A597A5A0A952
:10250000B1A9892B8A2B8B2B29F484E090E0938B43
:10251000828B53C18489958921964EAD5FAD2197F9
:102520004817590709F049C186A997A99AAB89AB01
:102530001EAE1DAE19AE1AAE1BAE1CAE8F01DF0172
:102540009E962996BFAFAEAF2997F2962B96FFAF16
:10255000EEAF2B979801285C3F4F2D963FAF2EAFE3
:102560002D97A8014A5D5F4F2F965FAF4EAF2F9713
:10257000C801829661969FAF8EAF61971A97639656
:10258000BFAFAEAF63972996EEADFFAD29978081BF
:102590009181A281B38129AD3AAD4BAD5CAD2817D5
:1025A00039074A075B070CF0E7C02B96EEADFFAD8D
:1025B0002B97808191812DAD3EAD280F391F3EAB09
:1025C0002DABD90112960D90BC91A02D2396BFAFD3
:1025D000AEAF2397B695A795B695A7952596BFAFAD
:1025E000AEAF25972D96EEADFFAD2D9780819181F1
:1025F000892B09F496C02F96AEADBFAD2F97CD9025
:10260000DD90ED90FC9029A83AA8F9010190F081A5
:10261000E02DF8ABEFA718AE1FAA8FA998AD2596AD
:10262000AEADBFAD25978A179B070CF07AC06196B7
:10263000AEADBFAD61978D919C91892B69F1EFA5EE
:10264000F8A94080518062807380A7019601C30180
:10265000B2010E94733087FD0BC0A7019601D10122
:102660006D917D918D919C910E94F02E87FD8CC083
:10267000A7019601C301B2010E947330181664F4D9
:10268000A7019601F10160817181828193810E948D
:10269000F02E882309F478C06396AEADBFAD639782
:1026A0008D919C91892B69F1EFA5F8A9408051800B
:1026B00062807380A7019601C301B2010E94F02ECF
:1026C00087FF0BC0A7019601D1016D917D918D917E
:1026D0009C910E94733087FF57C0A7019601C301E8
:1026E000B2010E94F02E81110CC0A7019601F101E8
:1026F00060817181828193810E94733018160CF47D
:1027000043C02FA938AD2F5F3F4F38AF2FAB34E018
:10271000230E311C4FA558A94C5F5F4F58AB4FA7F4
:102720007CCFEDA9FEA96081718123964EAD5FAD8E
:10273000239789A99AA90E94723225968EAD9FADE2
:102740002597880F991F880F991F29A93AA9280F43
:10275000391F3AAB29AB89AD9AADABADBCAD019693
:10276000A11DB11D89AF9AAFABAFBCAFADADBEADD2
:102770001496BEAFADAF07CF81E090E0D801D996F7
:102780009C938E93D89719C084E4889DF001899D0D
:10279000F00D1124EE5EFA4F868D978DA0A1B1A1A8
:1027A000892B8A2B8B2B09F064C284E090E0938BF9
:1027B000828B86AD97AD93A782A784E4889DF001B4
:1027C000899DF00D1124EE5EFA4F82899389823043
:1027D000910571F482AD93ADA4ADB5AD181619068F
:1027E0001A061B060CF04CC2CC24C394D12C05C095
:1027F000049709F045C2C12CD12C8EE02196EEAD94
:10280000FFAD21978E9F70018F9FF00C11242796AA
:102810002EAD3FAD2797E20EF31ED70112964D91D4
:102820005C9113974115510509F42AC216968D91B2
:102830009C9117979AA789A7FE01319684E1DF0141
:102840001D928A95E9F7898A9A8AAB8ABC8AC11453
:10285000D10409F457C084E4889DF001899DF00DEE
:102860001124EE5EFA4FDF01DE964D905D906D9083
:102870007C9082AD93ADA4ADB5AD481659066A06FD
:102880007B0609F03FC0F701648175810084F18502
:10289000E02D84819581A681B7819C018D8B9E8BD3
:1028A000AF8BB88F285F3F4F3E8B2D8BD70118968B
:1028B0008D919C911997280F391F19963C932E934F
:1028C000189718968D919C911997460F571F841B46
:1028D000950B97FD06C0860F971F19969C938E93B4
:1028E000189784E4889DF001899DF00D1124E05B28
:1028F000FA4FB1E04B1A51086108710840825182C9
:10290000628273829E012B5E3F4FAE01475D5F4F37
:1029100064E170E0C7010E94180B082F10E0011558
:10292000110509F091C18CE090E0A0E0B0E08D834A
:102930009E83AF83B8879E01235E3F4FAE01475D04
:102940005F4F64E070E0C7010E94180B082F10E091
:102950000115110509F078C180E190E0A0E0B0E038
:102960008D839E83AF83B8874D8D5E8DBE01655D7F
:102970007F4F8F8D98A10E9472328BA19CA10097EE
:1029800061F06D8D7E8DEBE2F0E0EC0FFD1F6E0FC0
:102990007F1F49A15AA10E9472321DA21EA21FA22E
:1029A00018A621962EAD3FAD2197220F331F38AFC9
:1029B0002FAB24E4289DC001299D900D11248E5E2B
:1029C0009A4FAC014C5F5F4F5AAF49AFDC0118968C
:1029D000BEAFADAF2DA13EA14FA158A529AB3AABDB
:1029E0004BAB5CABE9ADFAAD80819181A281B38143
:1029F000281739074A075B070CF0CFC0ADADBEAD55
:102A0000ED91FC9189A99AA9880F991F880F991FA8
:102A1000E80FF91FA081B1818C91882309F4AFC020
:102A2000833009F4ACC00280F381E02D2FA938ADCA
:102A3000E20FF31F4081518158AB4FA7452B09F49A
:102A40009EC089859A85AB85BC850196A11DB11D67
:102A500089879A87AB87BC879E01235E3F4FAE0173
:102A6000475D5F4F64E070E0C7010E94180B90E083
:102A7000009709F0E8C08D819E81AF81B8850496EA
:102A8000A11DB11D8D839E83AF83B8874D8D5E8D53
:102A9000BE016B5D7F4F8F8D98A10E9472328BA11A
:102AA0009CA1009761F06D8D7E8DA5E2B0E0AC0F2A
:102AB000BD1F6A0F7B1F49A15AA10E9472321EAA34
:102AC0001DAA412C512C3201EFA5F8A980819181DA
:102AD000A281B381481659066A067B060CF04FC0E6
:102AE000EFA5F8A9248035802DA93EA9220E331E1A
:102AF000D10112966D917C9113979E01235E3F4FF9
:102B0000AE01475D5F4FC7010E94180B90E0009730
:102B100009F099C0F10182819381092E000CAA0B62
:102B2000BB0B4D815E816F817885840F951FA61F39
:102B3000B71F8D839E83AF83B887608171814D8D70
:102B40005E8D8F8D98A10E9472328BA19CA10097FF
:102B500059F0D1016D917C912D8D3E8D620F731FC7
:102B600049A15AA10E947232BFEF4B1A5B0A6B0A4D
:102B70007B0AEDA9FEA93496FEABEDABA5CF49A823
:102B80005AA86BA87CA8FFEF4F1A5F0A6F0A7F0A4A
:102B90004DA25EA26FA278A61DCF89859A85AB85CE
:102BA000BC85892B8A2B8B2B09F44EC08AE190E0DF
:102BB000A0E0B0E089839A83AB83BC8321962EADDD
:102BC0003FAD2197C901330FAA0BBB0B8D879E87A1
:102BD000AF87B88B4D895E89BE016F5F7F4F8F894C
:102BE000988D0E9472328B8D9C8D009761F06D895B
:102BF0007E8941E050E04C0F5D1F640F751F498DC9
:102C00005A8D0E94723289A59AA5D70117969C9376
:102C10008E93169711961C921E92CD2889F184E40A
:102C2000889DF001899DF00D1124E05BFA4F8081B1
:102C30009181A281B3810196A11DB11D80839183F1
:102C4000A283B3831DC08C01CD28D1F4012BC1F028
:102C500084E4889DF001899DF00D1124EE5EFA4F09
:102C600081E090E095A784A785E090E0938B828B2C
:102C700007C083E090E0938B828B81E090E09BCD56
:102C8000CE5ADF4F0FB6F894DEBF0FBECDBFDF9137
:102C9000CF911F910F91FF90EF90DF90CF90BF9059
:102CA000AF909F908F907F906F905F904F903F90EC
:102CB0002F900895CF92DF92EF92FF920F931F9380
:102CC0006B017C0184E48C9DF0018D9DF00D11243D
:102CD000EE5EFA4F82899389009709F450C00197FC
:102CE000B9F482A593A59C012F5F3F4F33A722A77C
:102CF000092E000CAA0BBB0B028D138D248D358D74
:102D000080179107A207B307D1F5C701B6010CDB05
:102D100084E48C9DF0018D9DF00D1124EE5EFA4F40
:102D200082899389039759F582A593A59C012F5F0A
:102D30003F4F33A722A7092E000CAA0BBB0B468DD1
:102D4000578D60A171A184179507A607B707BCF03E
:102D500086AD97AD93A782A784E090E0938B828B9A
:102D600082AD93ADA4ADB5AD181619061A061B06B3
:102D700034F4EE5BFF4F81E090E0918380831F91FC
:102D80000F91FF90EF90DF90CF90089524E4269F5D
:102D9000F001279FF00D1124EE5EFA4F828993898E
:102DA0000497B1F482A593A5019693A782A7092E53
:102DB000000CAA0BBB0B46895789608D718D841757
:102DC0009507A607B70721F485E090E0938B828BE7
:102DD00008952F923F924F925F926F927F928F92BF
:102DE0009F92AF92BF92CF92DF92EF92FF920F939A
:102DF0001F93CF93DF93CDB7DEB72E970FB6F8941E
:102E0000DEBF0FBECDBF49835A836B837C834901EC
:102E1000442E552E24E4249DF001259DF00D11240F
:102E2000EE5EFA4F228833889101245031091586CD
:102E300014862230310508F0DDC0DC0111961C92A9
:102E40001E9213961C921E921297A12CB12C60E038
:102E500070E09F01265F3F4F38872F837F013CE062
:102E6000E30EF11CDF015096BA87A9879F01225F0C
:102E70003F4F3C872B87681579050CF06FC0EF81B9
:102E8000F885A081B1819D012A0D3B1D3E872D87CC
:102E9000D9012D913C911197232B09F059C0189617
:102EA0000D911C9119971296ED91FC911397FE8349
:102EB000ED8316962D913C911797D7014D915C911A
:102EC000DA01E3E0AA0FBB1FEA95E1F7E985FA858D
:102ED000C080D180FD01EC0DFD1D440F551FAB8559
:102EE000BC85CD90DC904C0D5D1DDA016D937C931B
:102EF000D7014D915C9111974F5F5F4F4D935C935C
:102F000013830283AD85BE851B963C932E931A973F
:102F10000217130748F4201B310B318320831582DD
:102F200014821782168214C0AD85BE851496CD908A
:102F3000DC9015974D815E814C0D5D1D401B510B42
:102F4000518340832C193D0935832483D782C6825F
:102F50006F5F7F4FBEE0AB0EB11C8DCF24E4249D8C
:102F60008001259D100D11240E5E1A4FF801248555
:102F70003585DC0111963C932E9340895189139637
:102F80005C934E9312974685578515965C934E93A6
:102F90001497232BA1F5B5E02B16310481F510927F
:102FA0009A05828D938DA48DB58DAE014F5F5F4FD5
:102FB00064E070E08F3F9F4FAF4FBF4F59F480E206
:102FC00090E00E94CC2569817A818B819C81A4014B
:102FD00000DA15C08FE190E00E94CC25D8019B96C5
:102FE0001C921E929A9781E090E053969C938E9348
:102FF000529705C0FC0111821082138212822E9614
:103000000FB6F894DEBF0FBECDBFDF91CF911F91F9
:103010000F91FF90EF90DF90CF90BF90AF909F9077
:103020008F907F906F905F904F903F902F9008957A
:10303000EF92FF920F931F93CF93DF937C018B014D
:10304000EA010E944F26811121C080914C0390918A
:103050004D03049711F183E090E090934D0380932A
:103060004C031BC098819111F0CF28ED38EB45E05F
:1030700050E060E070E0CB010E94D928AE01B801B9
:10308000C7010E94E728C8010E94B22880919B05D1
:1030900090919C05892B31F3D8CFDF91CF911F916F
:1030A0000F91FF90EF900895CF93DF9320914C0301
:1030B00030914D032430310541F0EB010E94E728A7
:1030C000CE01DF91CF910C94B228DF91CF9108957A
:1030D0000C94F92C0C94EE2C0C94DC2C0C94C2283F
:1030E0000C94802C089560E070E080E090E00C94F7
:1030F0002A260895AF92BF92CF92DF92EF92FF926D
:103100000F931F93CF93DF931F921F92CDB7DEB71C
:103110005C0169017A018B0180E090E0C114D10467
:10312000E104F104F1F0C114D10421E0E206F1045C
:1031300010F4A60102C04FEF5FEF9E012F5F3F4FDB
:10314000B801C5010E949A2D8F3F2FEF920749F0D9
:1031500029813A81C21AD30AE108F108020F131F2C
:10316000DDCF0F900F90DF91CF911F910F91FF90C6
:10317000EF90DF90CF90BF90AF900895089508959D
:10318000883008F070C0A82FB0E0AA0FBB1FA25B68
:10319000BC4F11967C936E9390E0FC013197E73021
:1031A000F105A0F58827EE58FF4F8F4F0C940F3193
:1031B000809169008C7F482B40936900E89A0895BC
:1031C00080916900440F551F440F551F837F482B82
:1031D00040936900E99A08958091690074E0440F72
:1031E000551F7A95E1F78F7C482B40936900EA9A46
:1031F00008958091690066E0440F551F6A95E1F7D4
:103200008F73482B40936900EB9A089580916A0070
:103210008C7F482B40936A00EC9A089580916A0055
:10322000440F551F440F551F837F482B40936A005E
:10323000ED9A089580916A0024E0440F551F2A9565
:10324000E1F78F7C482B40936A00EE9A08958091B5
:103250006A0096E0440F551F9A95E1F78F73482B4B
:1032600040936A00EF9A08951F920F920FB60F9243
:1032700011240BB60F922F933F934F935F936F934D
:103280007F938F939F93AF93BF93EF93FF93E091BF
:103290005203F09153031995FF91EF91BF91AF91B4
:1032A0009F918F917F916F915F914F913F912F915E
:1032B0000F900BBE0F900FBE0F901F9018951F928E
:1032C0000F920FB60F9211240BB60F922F933F93CC
:1032D0004F935F936F937F938F939F93AF93BF931E
:1032E000EF93FF93E0915403F09155031995FF91EB
:1032F000EF91BF91AF919F918F917F916F915F916E
:103300004F913F912F910F900BBE0F900FBE0F90DA
:103310001F9018951F920F920FB60F9211240BB6A3
:103320000F922F933F934F935F936F937F938F935E
:103330009F93AF93BF93EF93FF93E0915603F09168
:1033400057031995FF91EF91BF91AF919F918F9185
:103350007F916F915F914F913F912F910F900BBE95
:103360000F900FBE0F901F9018951F920F920FB6DF
:103370000F9211240BB60F922F933F934F935F93AD
:103380006F937F938F939F93AF93BF93EF93FF932D
:10339000E0915803F09159031995FF91EF91BF9176
:1033A000AF919F918F917F916F915F914F913F91DD
:1033B0002F910F900BBE0F900FBE0F901F9018957E
:1033C0001F920F920FB60F9211240BB60F922F93EC
:1033D0003F934F935F936F937F938F939F93AF939D
:1033E000BF93EF93FF93E0914E03F0914F03199534
:1033F000FF91EF91BF91AF919F918F917F916F91CD
:103400005F914F913F912F910F900BBE0F900FBE88
:103410000F901F9018951F920F920FB60F921124C4
:103420000BB60F922F933F934F935F936F937F93BE
:103430008F939F93AF93BF93EF93FF93E0915003CC
:10344000F09151031995FF91EF91BF91AF919F9129
:103450008F917F916F915F914F913F912F910F903D
:103460000BBE0F900FBE0F901F9018951F920F92DA
:103470000FB60F9211240BB60F922F933F934F93D9
:103480005F936F937F938F939F93AF93BF93EF93CC
:10349000FF93E0915A03F0915B031995FF91EF912F
:1034A000BF91AF919F918F917F916F915F914F915C
:1034B0003F912F910F900BBE0F900FBE0F901F905A
:1034C00018951F920F920FB60F9211240BB60F9200
:1034D0002F933F934F935F936F937F938F939F931C
:1034E000AF93BF93EF93FF93E0915C03F0915D0383
:1034F0001995FF91EF91BF91AF919F918F917F911E
:103500006F915F914F913F912F910F900BBE0F9054
:103510000FBE0F901F9018951F920F920FB60F922B
:1035200011242F933F938F939F93AF93BF938091D9
:103530009E0590919F05A091A005B091A1053091A5
:103540009D0523E0230F2D3720F40196A11DB11D09
:1035500005C026E8230F0296A11DB11D20939D05ED
:1035600080939E0590939F05A093A005B093A1051D
:103570008091A2059091A305A091A405B091A50505
:103580000196A11DB11D8093A2059093A305A09360
:10359000A405B093A505BF91AF919F918F913F91E5
:1035A0002F910F900FBE0F901F9018953FB7F89472
:1035B0008091A2059091A305A091A405B091A505C5
:1035C00026B5A89B05C02F3F19F00196A11DB11D7E
:1035D0003FBFBA2FA92F982F8827820F911DA11DB9
:1035E000B11DBC01CD0142E0660F771F881F991FF6
:1035F0004A95D1F708958F929F92AF92BF92CF9242
:10360000DF92EF92FF926B017C01D0DF4B015C01F6
:10361000C114D104E104F104F1F0B0DDC7DFDC0135
:10362000CB0188199909AA09BB09883E9340A105D5
:10363000B10570F321E0C21AD108E108F10888EE63
:10364000880E83E0981EA11CB11CC114D104E104B2
:10365000F10421F7DDCFFF90EF90DF90CF90BF9086
:10366000AF909F908F900895789484B5826084BDC8
:1036700084B5816084BD85B5826085BD85B5816076
:1036800085BDEEE6F0E0808181608083E1E8F0E0D6
:103690001082808182608083808181608083E0E805
:1036A000F0E0808181608083E1EBF0E080818460E4
:1036B0008083E0EBF0E0808181608083E1E9F0E0ED
:1036C000808182608083808181608083E0E9F0E096
:1036D000808181608083E1EAF0E080818260808384
:1036E000808181608083E0EAF0E080818160808376
:1036F000E1E2F1E08081826080838081816080836B
:10370000E0E2F1E0808181608083EAE7F0E080819F
:1037100084608083808182608083808181608083F7
:103720008081806880831092C10008951F93CF9399
:10373000DF93182FEB0161E016D1209711F460E0C0
:1037400004C0CF3FD10531F461E0812FDF91CF91EB
:103750001F9145C1E12FF0E0E65AFE4FE4914E2F54
:1037600050E0FA013197E231F10508F09DC0882759
:10377000E758FF4F8F4F0C940F3184B5806884BD9C
:10378000C7BD97C084B5806284BDC8BD92C080911A
:103790008000806880938000D0938900C093880067
:1037A00088C080918000806280938000D0938B00DD
:1037B000C0938A007EC080918000886080938000E2
:1037C000D0938D00C0938C0074C08091B00080684D
:1037D0008093B000C093B3006CC08091B000806251
:1037E0008093B000C093B40064C080919000806862
:1037F00080939000D0939900C09398005AC0809114
:103800009000806280939000D0939B00C0939A00B8
:1038100050C080919000886080939000D0939D006C
:10382000C0939C0046C08091A00080688093A00057
:103830008091A0008F7B8093A000D093A900C093BB
:10384000A80037C08091A00080628093A000D09330
:10385000AB00C093AA002DC08091A0008860809327
:10386000A000D093AD00C093AC0023C08091200194
:10387000806880932001D0932901C093280119C04A
:1038800080912001806280932001D0932B01C0930E
:103890002A010FC080912001886080932001D0937D
:1038A0002D01C0932C0105C0C038D1050CF04CCFC0
:1038B00046CFDF91CF911F91089590E0FC013197A1
:1038C000E231F10508F04EC08827E557FF4F8F4FD2
:1038D0000C940F31809180008F7703C0809180001D
:1038E0008F7D80938000089580918000877FF9CF3D
:1038F00084B58F7702C084B58F7D84BD0895809193
:10390000B0008F7703C08091B0008F7D8093B000AE
:103910000895809190008F7707C0809190008F7DEF
:1039200003C080919000877F8093900008958091DC
:10393000A0008F7707C08091A0008F7D03C0809189
:10394000A000877F8093A0000895809120018F7749
:1039500007C0809120018F7D03C080912001877F67
:10396000809320010895CF93DF9390E0FC01E0560F
:10397000FE4F2491FC01EA51FE4F8491882361F1AE
:1039800090E0880F991FFC01EA5BFD4FC591D4912F
:10399000FC01E45DFD4FA591B491611109C09FB791
:1039A000F8948881209582238883EC912E230BC084
:1039B000623061F49FB7F8943881822F8095832319
:1039C0008883EC912E2B2C939FBF06C08FB7F89461
:1039D000E8812E2B28838FBFDF91CF9108951F930D
:1039E000CF93DF93282F30E0F901E65AFE4F849100
:1039F000F901E056FE4FD491F901EA51FE4FC4910E
:103A0000CC23C1F0162F811158DFEC2FF0E0EE0F20
:103A1000FF1FE45DFD4FA591B4918FB7F89411118C
:103A200005C09C91ED2FE095E92302C0EC91ED2BB0
:103A3000EC938FBFDF91CF911F910895FC01918D81
:103A4000228D892F90E0805C9F4F821B91098F739C
:103A500099270895FC01918D828D981731F0828D00
:103A6000E80FF11D858D90E008958FEF9FEF089589
:103A7000FC01918D828D981761F0828DDF01A80F76
:103A8000B11D5D968C91928D9F5F9F73928F90E098
:103A900008958FEF9FEF0895FC01848DDF01A80F3B
:103AA000B11DA35ABF4F2C91848D90E001968F7366
:103AB0009927848FA689B7892C93A089B1898C9185
:103AC00080648C93938D848D981306C00288F3894B
:103AD000E02D80818F7D80830895CF93DF93EC016B
:103AE000888D8823C1F0EA89FB89808185FD05C026
:103AF000A889B9898C9186FD0EC00FB607FCF5CF59
:103B0000808185FFF2CFA889B9898C9185FFEDCF9F
:103B1000CE01C2DFE8CFDF91CF910895EF92FF92FF
:103B20000F931F93CF93DF93EC0181E0888F9B8DE0
:103B30008C8D981305C0E889F989808185FD23C0A3
:103B4000F62E0B8D10E00F5F1F4F0F731127E02E25
:103B50008C8DE8120BC00FB607FCFACFE889F98903
:103B6000808185FFF5CFCE0197DFF2CF8B8DFE01EF
:103B7000E80FF11DE35AFF4FF0820B8FEA89FB89B2
:103B80008081806207C0EE89FF896083E889F989B6
:103B900080818064808381E090E0DF91CF911F91EC
:103BA0000F91FF90EF900895CF92DF92EF92FF92E6
:103BB0001F93CF93DF93EC016A017B01122FE889F9
:103BC000F98982E080834115514E61057105B1F09C
:103BD00060E079E08DE390E0A70196010E94ED306E
:103BE000DA01C9010197A109B109B695A795979581
:103BF0008795AC01411580E15807A8F0E889F9895B
:103C0000108260E874E88EE190E0A70196010E94BE
:103C1000ED30BA01A9014150510961097109769548
:103C2000679557954795EC85FD855083EE85FF8513
:103C30004083188EEC89FD891083EA89FB89808195
:103C400080618083EA89FB89808188608083EA893A
:103C5000FB89808180688083EA89FB8980818F7DF0
:103C60008083DF91CF911F91FF90EF90DF90CF90F5
:103C700008951F920F920FB60F9211240BB60F9258
:103C80002F938F939F93EF93FF93E091B605F0915D
:103C9000B7058081E091BC05F091BD0582FD12C0A1
:103CA00090818091BF058F5F8F732091C00582172F
:103CB00051F0E091BF05F0E0EA55FA4F958F8093FF
:103CC000BF0501C08081FF91EF919F918F912F914E
:103CD0000F900BBE0F900FBE0F901F9018951F9264
:103CE0000F920FB60F9211240BB60F922F933F93A2
:103CF0004F935F936F937F938F939F93AF93BF93F4
:103D0000EF93FF9386EA95E0C7DEFF91EF91BF91B5
:103D1000AF919F918F917F916F915F914F913F9163
:103D20002F910F900BBE0F900FBE0F901F90189504
:103D3000E6EAF5E01382128288EE93E0A0E0B0E0BC
:103D400084839583A683B7838CE494E091838083F6
:103D500085EC90E09587848784EC90E09787868750
:103D600080EC90E0918B808B81EC90E0938B828B48
:103D700082EC90E0958B848B86EC90E0978B868B21
:103D8000118E128E138E148E08951F920F920FB6FD
:103D90000F9211240BB60F922F938F939F93EF9353
:103DA000FF93E0915306F09154068081E09159060B
:103DB000F0915A0682FD12C0908180915C068F5F5F
:103DC0008F7320915D06821751F0E0915C06F0E060
:103DD000ED5BF94F958F80935C0601C08081FF9168
:103DE000EF919F918F912F910F900BBE0F900FBE6F
:103DF0000F901F9018951F920F920FB60F921124DB
:103E00000BB60F922F933F934F935F936F937F93D4
:103E10008F939F93AF93BF93EF93FF9383E496E0C9
:103E20003BDEFF91EF91BF91AF919F918F917F9179
:103E30006F915F914F913F912F910F900BBE0F901B
:103E40000FBE0F901F901895E3E4F6E013821282E4
:103E500088EE93E0A0E0B0E084839583A683B783E7
:103E60008CE494E0918380838DEC90E09587848747
:103E70008CEC90E09787868788EC90E0918B808B24
:103E800089EC90E0938B828B8AEC90E0958B848B0D
:103E90008EEC90E0978B868B118E128E138E148E83
:103EA00008951F920F920FB60F9211240BB60F9226
:103EB0002F938F939F93EF93FF93E091F006F091F0
:103EC000F1068081E091F606F091F70682FD12C0BE
:103ED00090818091F9068F5F8F732091FA06821787
:103EE00051F0E091F906F0E0E052F94F958F8093A0
:103EF000F90601C08081FF91EF919F918F912F91E1
:103F00000F900BBE0F900FBE0F901F9018951F9231
:103F10000F920FB60F9211240BB60F922F933F936F
:103F20004F935F936F937F938F939F93AF93BF93C1
:103F3000EF93FF9380EE96E0AFDDFF91EF91BF919D
:103F4000AF919F918F917F916F915F914F913F9131
:103F50002F910F900BBE0F900FBE0F901F901895D2
:103F6000E0EEF6E01382128288EE93E0A0E0B0E08B
:103F700084839583A683B7838CE494E091838083C4
:103F800085ED90E09587848784ED90E0978786871C
:103F900080ED90E0918B808B81ED90E0938B828B14
:103FA00082ED90E0958B848B86ED90E0978B868BED
:103FB000118E128E138E148E08951F920F920FB6CB
:103FC0000F9211240BB60F922F938F939F93EF9321
:103FD000FF93E0918D07F0918E078081E091930728
:103FE000F091940782FD12C09081809196078F5FB7
:103FF0008F7320919707821751F0E0919607F0E0B8
:10400000E358F84F958F8093960701C08081FF9108
:10401000EF919F918F912F910F900BBE0F900FBE3C
:104020000F901F9018951F920F920FB60F921124A8
:104030000BB60F922F933F934F935F936F937F93A2
:104040008F939F93AF93BF93EF93FF938DE797E089
:1040500023DDFF91EF91BF91AF919F918F917F9160
:104060006F915F914F913F912F910F900BBE0F90E9
:104070000FBE0F901F901895EDE7F7E013821282A4
:1040800088EE93E0A0E0B0E084839583A683B783B5
:104090008CE494E09183808385E391E09587848725
:1040A00084E391E09787868780E391E0918B808B12
:1040B00081E391E0938B828B82E391E0958B848BFB
:1040C00086E391E0978B868B118E128E138E148E61
:1040D00008958F929F92AF92BF92CF92DF92EF920C
:1040E000FF920F931F93CF93DF937C018B016C01A1
:1040F00082E0C80ED11C4701E5E08E0E911CC0E0A5
:10410000D0E0F60161916F014AE050E0C801C6D0ED
:104110005C016EE2C80167D08A0D9B1DC80FD91FD4
:10412000C814D90471F74AE050E0F7016581C8016D
:10413000B5D08C0F9D1FDF91CF911F910F91FF90F4
:10414000EF90DF90CF90BF90AF909F908F900895A9
:10415000EAE1F8E08CE594E0918380831282138297
:10416000148215820895CF92DF92EF92FF920F93FF
:104170001F93CF93DF936C017A018B01C0E0D0E0F5
:10418000CE15DF0589F0D8016D918D01D601ED9135
:10419000FC910190F081E02DC6011995892B11F455
:1041A0007E0102C02196ECCFC701DF91CF911F9114
:1041B0000F91FF90EF90DF90CF90089561157105FA
:1041C00079F0FB0101900020E9F73197AF01461B20
:1041D000570BDC01ED91FC910280F381E02D1994E5
:1041E00080E090E00895DC01ED91FC910190F08178
:1041F000E02D19944F925F926F927F92EF92FF920F
:104200000F931F93CF93DF93CDB7DEB7A1970FB670
:10421000F894DEBF0FBECDBF7C01FA01CB0119A21D
:10422000223008F42AE08E010F5D1F4F422E512CE0
:10423000612C712CBF01A30192010E94ED30F901A4
:10424000CA01015011096A3014F4605D01C0695C53
:10425000D8016C93232B242B252B61F7B801C701C0
:10426000ADDFA1960FB6F894DEBF0FBECDBFDF91D4
:10427000CF911F910F91FF90EF907F906F905F9083
:104280004F9008952115310541F4DC01ED91FC9129
:104290000190F081E02D642F1994ACCF9A01462F44
:1042A00050E060E070E0EECF8230A9F028F488237F
:1042B00049F0813051F00895843021F1E8F08530E3
:1042C00039F1089510926E00089580916F008D7FEE
:1042D00080936F000895809170008D7F80937000AF
:1042E00081E08093B0008091B100887F84608093EA
:1042F000B1001092B3000895809171008D7F80937A
:1043000071000895809172008D7F809372000895EE
:10431000809173008D7F809373000895CF93C82F91
:1043200080915E038C1307C0E0E6F2E0E4918FEF2A
:1043300080935E0301C0EFEF8E2FB6DF60E08C2F1D
:10434000CF914DCB1F920F920FB60F9211240BB647
:104350000F922F933F934F935F936F937F938F931E
:104360009F93AF93BF93EF93FF9380912308909116
:104370002408A0912508B0912608892B8A2B8B2B25
:1043800051F180912008E0912108F091220890815C
:10439000892780838091230890912408A091250883
:1043A000B0912608181619061A061B06BCF480914F
:1043B000230890912408A0912508B0912608019720
:1043C000A109B1098093230890932408A09325089C
:1043D000B093260803C080915E03A0DFFF91EF91A8
:1043E000BF91AF919F918F917F916F915F914F910D
:1043F0003F912F910F900BBE0F900FBE0F901F900B
:10440000189540E052EC61E070E080E090E006D06A
:1044100061E08DE0A8DA60E08DE0E1CA81309105CD
:1044200071F01CF4892B39F008958230910559F010
:10443000039769F0089526E086EA95E00BC026E030
:1044400083E496E007C026E080EE96E003C026E015
:104450008DE797E0A9CB1F920F920FB60F92112410
:104460000BB60F922F933F934F935F936F937F936E
:104470008F939F93AF93BF93EF93FF9382E19DEF51
:1044800090932501809324018091540890915508C0
:10449000019719F461E08DE0A2DA0E94D42DFF911A
:1044A000EF91BF91AF919F918F917F916F915F91AC
:1044B0004F913F912F910F900BBE0F900FBE0F9019
:1044C0001F90189582E19DEF909325018093240120
:1044D000A3E7B0E08C918E7F8C93E0E2F1E08081E5
:1044E0008C7F8083E1E2F1E08081877E8083808120
:1044F0008360808380818B7F80838C9181608C93AB
:10450000089581E008956F927F928F929F92AF926B
:10451000BF92CF92DF92EF92FF920F931F93CF93B0
:10452000DF935C017B014A0101E010E00E151F05DD
:1045300064F568018FEFC81AD80AE801CC0FDD1FB7
:10454000C80DD91D6880798061147104E1F06EE5B1
:1045500074E0C3010E948232892B19F419821882F7
:1045600012C061E674E0C3010E948232892B59F4C3
:10457000CE14DF0441F06801E2E0CE0ED11C1982B6
:1045800018821B821A828601D1CF81E0F5018083D7
:10459000B401C7010E94242DF5019283818380E03C
:1045A00090E0DF91CF911F910F91FF90EF90DF90FE
:1045B000CF90BF90AF909F908F907F906F90089515
:1045C00087E298E0089580E008950F931F93CF93BA
:1045D000DF938B01BA01E901198218829801012E3B
:1045E000000C440B550BFC01818192810E947A18CA
:1045F000019621F01983088380E001C081E0DF91FA
:10460000CF911F910F9108950F931F93CF93DF9335
:104610001F921F92CDB7DEB7FB018A01B9019E013F
:104620002F5F3F4FAF01FC01818192810E943B2DA2
:10463000019639F089819A81F8019183808380E025
:1046400001C081E00F900F90DF91CF911F910F91EA
:104650000895FC01808108950895089581E0FB018B
:10466000808380E008950895109251080895FC0118
:10467000818192810C941B2DCF93DF93CDB7DEB750
:104680002A970FB6F894DEBF0FBECDBFAC01CB01A9
:1046900060E070E049835A836B837C83092E000CB1
:1046A000AA0BBB0B8D839E83AF83B8879E01275FC8
:1046B0003F4FAE014F5F5F4F68E070E08091400870
:1046C0009091410882DF811108C081E029853A85F7
:1046D0002830310519F480E001C081E02A960FB638
:1046E000F894DEBF0FBECDBFDF91CF9108950F9339
:1046F0001F93CF93DF931F921F92CDB7DEB78B012D
:104700009E012F5F3F4FAC0180914008909141087E
:104710005CDF811108C081E029813A8120173107CF
:1047200019F480E001C081E00F900F90DF91CF91EC
:104730001F910F910895CF93DF93EC0110924408DD
:10474000109243081092500810924F08AC0160E09C
:1047500070E0CB010E94E911AE0161E070E080E001
:1047600090E00E94E9118091400890914108DF910A
:10477000CF9179CF4F925F926F927F928F929F925B
:10478000AF92BF92CF92DF92EF92FF920F931F935F
:10479000CF93DF931F921F92CDB7DEB79C016C01C0
:1047A00097FF03C087E0C80ED11C43E0D594C7949F
:1047B0004A95E1F7C90168E070E00E94DA307C01B7
:1047C00089010E5F1F4F80913E0890913F0880172E
:1047D00091070CF0DCC080913C0890913D08009757
:1047E00031F00E94DA3110923F0810923E08C80161
:1047F0000E94453190933D0880933C08892B29F015
:1048000010933F0800933E08C2C0A12CB12CAC14F9
:10481000BD040CF05EC0412C512C320100E010E0D0
:1048200098012B5B374FAE014F5F5F4F61E070E047
:104830008091400890914108E7DE811198C18981FB
:104840009A812FEF421A520A620A720A20E942162E
:104850002FE5520621E0620671043CF060914F089A
:10486000709150088DEE90E02DC0080F191F0A308E
:10487000110551F549E050E060E070E085E498E012
:104880000E94C62D60914F08709150088823C1F096
:1048900080914D0890E06817790709F0B8CF8EEE47
:1048A00090E0EADE80914F08909150080196992798
:1048B0009093500880934F088FEFA81AB80AA7CF9B
:1048C0008FEE90E0D9DEA7CF0A3011050CF4A8CF07
:1048D0009ECFEF2809F44BC1C12CD12C760100E00A
:1048E00010E098012B5B374FAE014F5F5F4F61E0E7
:1048F00070E0809140089091410886DE811137C1B7
:1049000089819A812FEFC21AD20AE20AF20A20E9BB
:10491000C2162FE5D20621E0E206F1043CF06091D8
:104920004F08709150088DEE90E02AC0080F191FB3
:104930000A30110539F549E050E060E070E085E4A7
:1049400098E00E94C62D60914F087091500888230E
:10495000A9F080914D0890E06817790709F007C128
:104960008EEE90E089DE80914F089091500801967C
:1049700099279093500880934F08F9C08FEE90E0EC
:104980007BDEAACF0A3011050CF4ABCFF0C000E0FB
:1049900010E00C151D050CF077C0412C512C320194
:1049A000A12CB12C480193E0880C991C9A95E1F751
:1049B00020913C0830913D08C4018A0D9B1D280FB1
:1049C000391FAE014F5F5F4F61E070E0809140089A
:1049D0009091410819DE8111CAC089819A812FEF17
:1049E000421A520A620A720A20E942162FE552065A
:1049F00021E0620671043CF060914F08709150080C
:104A00008DEE90E034C0A80EB91E8AE0A816B1045D
:104A1000A9F549E050E0B40180913C0890913D082F
:104A20000E94C62D60914F08709150088823E9F0CC
:104A300080913C0890913D08FC01E80DF91D8085AE
:104A400090E06817790709F0A4CF8EEE90E014DEAD
:104A500080914F08909150080196992790935008A3
:104A600080934F080F5F1F4F94CF8FEE90E004DECE
:104A7000412C512C3201A12CB12C9ACF2AE0A21644
:104A8000B1040CF495CF85CFE114F10409F46AC0A8
:104A9000680183E0CC0CDD1C8A95E1F7812C912C18
:104AA000540100E010E098012B5B374FAE014F5FDF
:104AB0005F4F61E070E08091400890914108A4DD73
:104AC000811155C089819A812FEF821A920AA20A18
:104AD000B20A20E982162FE5920621E0A206B1046F
:104AE0003CF060914F08709150088DEE90E034C01A
:104AF000080F191F0A30110589F549E050E060E000
:104B000070E085E498E00E94C62D60914F08709196
:104B100050088823F9F080914D0890E068177907D4
:104B200009F58EEE90E0A8DD80913C0890913D085B
:104B3000A70165E478E08C0D9D1D0E947232809182
:104B40004F089091500801969927909350088093B0
:104B50004F0808C08FEE90E08FDDA0CF0A3011051E
:104B60000CF4A1CF80913C0890913D0802C080E0F8
:104B700090E00F900F90DF91CF911F910F91FF90D8
:104B8000EF90DF90CF90BF90AF909F908F907F90ED
:104B90006F905F904F900895CF92DF92EF92FF92C7
:104BA0000F931F93CF93DF931F92CDB7DEB76C01A6
:104BB0007B018A01452B31F0AB0160E070E0C80158
:104BC000E1D78983B701C60157DD81110DC00115F9
:104BD000110551F0B701C8018ADD811105C061E0FE
:104BE00070E0CE01019683DD0F90DF91CF911F9190
:104BF0000F91FF90EF90DF90CF900895CF92DF92CA
:104C0000EF92FF92CF93DF93CDB7DEB728970FB621
:104C1000F894DEBF0FBECDBF6B01E12CF12CC98231
:104C2000DA82EB82FC822D833E834F835887AE016C
:104C30004F5F5F4F68E070E0AFDF28960FB6F894E3
:104C4000DEBF0FBECDBFDF91CF91FF90EF90DF9021
:104C5000CF9008950F931F93CF93DF93EC018B01B7
:104C6000AFDC9093410880934008009739F0A80189
:104C7000BE0149DCEC01892B19F40BC0CDE6D4E070
:104C80008091400890914108E7DC10924108109211
:104C90004008CE01DF91CF911F910F91089580912F
:104CA000400890914108D5CC2F923F924F925F924D
:104CB0006F927F928F929F92AF92BF92CF92DF922C
:104CC000EF92FF920F931F93CF93DF93CDB7DEB791
:104CD00069970FB6F894DEBF0FBECDBF2091440890
:104CE000222309F426C25D8B4C8B688B798B8A8BCF
:104CF0009B8B9A01AB01BC01CE0101960E94E91683
:104D000010E038E0232E312C89819A81181619067B
:104D10000CF00AC21F861E861D861C8689819A8118
:104D2000AC85BD85A817B9070CF0F3C1EB81FC81F8
:104D30002E853F85E20FF31F2081318130933B08A0
:104D400020933A088481958190933908809338089C
:104D500042815381509337084093360846815781EA
:104D60005093350840933408820F931F9C01990F8C
:104D7000440B550B2E8B3F8B488F598FC12CD12C58
:104D800076012E893F89488D598DC216D306E406D7
:104D9000F50608F0A2C11F8260913A0870913B08A5
:104DA0008B01072E000C220B330BD701C601049692
:104DB000A11DB11D80179107A207B30728F4E09148
:104DC0003608F09137080AC0E4E0F0E0E61BF70B84
:104DD000EC0DFD1D8091340890913508E80FF91F06
:104DE0004080512C612C712CD701C6010596A11D64
:104DF000B11D80179107A207B30728F4E091360888
:104E0000F09137080AC0E5E0F0E0E61BF70BEC0D87
:104E1000FD1D8091340890913508E80FF91F8081BD
:104E2000582AD701C6010696A11DB11D801791070A
:104E3000A207B30728F4E0913608F09137080AC0BA
:104E4000E6E0F0E0E61BF70BEC0DFD1D8091340869
:104E500090913508E80FF91F8081682AD701C601B3
:104E60000796A11DB11D80179107A207B30728F46B
:104E7000E0913608F09137080AC0E7E0F0E0E61B61
:104E8000F70BEC0DFD1D8091340890913508E80F6B
:104E9000F91F8081782A4601570148E0840E911C51
:104EA000A11CB11C081519052A053B0508F4B4C05E
:104EB000C016D106E206F30638F4809136089091C8
:104EC00037088C0D9D1D09C0C601861B970B2091CC
:104ED000340830913508820F931F68E070E007DCDA
:104EE000E0913A08F0913B089F010F2E000C440B13
:104EF000550BD301C201880D991DAA1DBB1D281792
:104F000039074A075B07C8F082169306A406B50660
:104F100038F42091360830913708C601089609C048
:104F2000C1018E1B9F0B8C0D9D1D2091340830916B
:104F30003508820F931FB20199C08601BF016850E6
:104F400071096C197D0982169306A406B50638F41A
:104F50002091360830913708C601089609C0C10172
:104F60008E1B9F0B8C0D9D1D2091340830913508B0
:104F7000820F931FBCDB80913A0890913B08B101EE
:104F8000681B790B600F711F640D751D80913408CB
:104F900090913508ACDB80913A0890913B08AC01C8
:104FA00048505109FA01E01BF10BAC01092E000C2D
:104FB000660B770B84169506A606B70638F4209183
:104FC000360830913708C60108960AC09101281B9F
:104FD000390BC9018C0D9D1D209134083091350885
:104FE000820F931FAF0160E070E0CCD58F832091DA
:104FF0003A0830913B08A101421B530B9A01200F44
:10500000311F240D351D40E050E0682F8091340899
:1050100090913508A3D550C0C016D106E206F3061C
:10502000C8F46C197D0980913608909137088C0D71
:105030009D1D5DDB80913A0890913B08B101681B92
:10504000790B6C0D7D1D640D751D80913408909158
:1050500035080CC0C601861B970B2091340830918F
:105060003508B201685F7F4F820F931F40DB80914C
:105070003A0890913B08AC01092E000C660B770BA7
:1050800084169506A606B70638F4209136083091A6
:105090003708C60108960AC0D101A81BB90BCD017B
:1050A0008C0D9D1D2091340830913508820F931F7F
:1050B000A20160E070E066D58F8361E070E0CE0110
:1050C000079615DB182FB8E04B0E511C611C711CA4
:1050D000C40CD51CE61CF71C54CE8C859D85880F0E
:1050E000991FED81FE81E80FF91F488959896A8966
:1050F0007B89808191810E941B124C855D854F5F69
:105100005F4F5D874C878E859F8508969F878E872A
:1051100005CE2C893D89488959896A897B89CE01C8
:1051200001960E94E916F0CD112319F08C899D8912
:1051300002DB69960FB6F894DEBF0FBECDBFDF91DC
:10514000CF911F910F91FF90EF90DF90CF90BF9084
:10515000AF909F908F907F906F905F904F903F9017
:105160002F900895CF93DF93EC01AC0160E070E0E5
:10517000CB019ADDAE0161E070E080E090E0DF916C
:10518000CF9192CDCF9380914008909141081BDA46
:10519000C82F81110BC060E070E0CB010E94F10CC0
:1051A00061E070E080E090E00E94F10C8C2FCF91E4
:1051B00008950F931F9389019A01AB01BC0180915F
:1051C00040089091410849DA1F910F9108953F924C
:1051D0004F925F926F927F928F929F92AF92BF9207
:1051E000CF92DF92EF92FF920F931F93CF93DF93B3
:1051F000CDB7DEB767970FB6F894DEBF0FBECDBF51
:105200006C017B015A0180914408882331F0809120
:105210004408882309F45CC30AC064E478E0809100
:105220004008909141081ADA811152C3F0CF809161
:1052300043081A821982882309F46AC0E0E94E2ED5
:10524000EFE55E2E66246394712C00E010E0980177
:10525000265D374FAE014F5F5F4F61E070E0809198
:10526000400890914108D0D9982E81114DC0898174
:105270009A81080F191F0115110509F445C081E035
:10528000481A51086108710839F460914F0870910B
:1052900050088DEE90E030C00A30110589F549E0E4
:1052A00050E060E070E08AE298E070D460914F08CE
:1052B000709150088823F1F08091320890E06817CF
:1052C0007907D9F48EEE90E0D7D988E0EAE2F8E0E9
:1052D000DE01199601900D928A95E1F720914F0811
:1052E000309150082F5F3F4F332730935008209361
:1052F0004F080AC08FEE90E0BFD91A82198204C00D
:105300000A3011050CF4A3CF81E029813A8124C031
:1053100000E010E078E0672E712C29E030E02C0FDF
:105320003D1F200F311FAE014F5F5F4FB301601B68
:10533000710B809140089091410866D9982E29817F
:105340003A81811108C0020F131F0115110519F0D0
:105350000830110514F381E0121613060CF080E0FA
:105360009110B3C2882309F4B3C28091430881111C
:1053700004C019861A861B861C8689859A85AB858A
:10538000BC858031910508F0A3C2FC018827E35653
:10539000FF4F8F4F44C7D6011696ED91FC9117979A
:1053A00080819181A281B38189839A83AB83BC83FD
:1053B000AE014F5F5F4F64E070E085E190E07DC13A
:1053C0008D859E85D7D9009731F42FEF3FEFA90146
:1053D00061E070E00EC0FC0180809180A280B3800B
:1053E000A701C501B4010E949411A501940160E0D8
:1053F00070E08DE190E067C28D859E85BBD90097F6
:1054000021F42FEF3FEFA90110C0DC018D909D909A
:10541000AD90BD90AD0195018401B701C6010E9418
:10542000360EA5019401882319F061E070E002C0F6
:1054300060E070E08BE190E046C28D859E859AD950
:10544000009721F42FEF3FEFA9010FC0FC018190DD
:105450009190A190B190BF01A5019401C6010E9455
:105460003910A5019401882319F061E070E002C0B1
:1054700060E070E08CE190E026C2D6011496ED91D8
:10548000FC91159700811181F80182809380A080A2
:10549000B18060E1462E512C612C712C49825A82D8
:1054A0006B827C8288E090E0A0E0B0E08D839E83F8
:1054B000AF83B8879E012F5E3F4FAE014F5F5F4FB6
:1054C00068E070E080914008909141087ED8882380
:1054D00019F000E010E0BAC089899A890897C9F7E5
:1054E000D801ED90FC90B8E0EB0EF11CEE0CFF1C27
:1054F000EE0CFF1CC701C9D68C01892B51F34982E0
:105500005A826B827C82C7010F2C000CAA0BBB0B4A
:105510008D839E83AF83B8879E012F5E3F4FAE0180
:105520004F5F5F4F68E070E08091400890914108C4
:105530004CD881118BC089899A89089709F086C057
:10554000D6011296ED91FC911397408151816281B1
:105550007381D8014D935D936D937C931397448130
:1055600055816681778114964D935D936D937C93FD
:105570001797408551856285738518964D935D9385
:105580006D937C931B9784859585A685B785F801D7
:1055900084879587A687B787108A118A128A138A0B
:1055A00084E090E0A0E0B0E0848B958BA68BB78B75
:1055B00080914C0390914D03A0E0B0E0808F918FDB
:1055C000A28FB38FC5010B2C000CAA0BBB0B848FD1
:1055D000958FA68FB78FF401D801909680E090E068
:1055E0008A159B0554F44191519160E070E04D9310
:1055F0005D936D937D930196F3CF9E012F5E3F4F98
:10560000A801B70180914008909141080E94E522CD
:1056100081111CC089899A898E159F05B9F4A7014B
:1056200060E070E0C801AED28B8B9E012F5E3F4FD1
:10563000AE014D5E5F4F61E070E080914008909157
:1056400041080E94E52281E080934308C8016796E3
:105650000FB6F894DEBF0FBECDBFDF91CF911F9183
:105660000F91FF90EF90DF90CF90BF90AF909F9001
:105670008F907F906F905F904F903F909BC68D85ED
:105680009E85AF85B8890097A105B10521F481E019
:10569000809342081DC16ED8009789F481E090E0A4
:1056A000A0E0B0E089839A83AB83BC83AE014F5FF7
:1056B0005F4F64E070E082E190E06EDA09C1BC0106
:1056C000C6010E94440C19821A821B821C82AE0100
:1056D0004F5F5F4F64E070E082E190E05DDA81113E
:1056E000F7C0D5CFD6011496ED91FC911597019096
:1056F000F081E02D008511858FEF8983011511055B
:1057000009F472C0D8016D907C90A280B38020E033
:1057100030E060E070E080E090E0861597050CF5E1
:10572000F801A281B381A20FB31F1296ED91FC91F3
:105730001397EE0FFF1FEA0DFB1D0190F081E02D86
:1057400016960D90BC91A02DEA9FA001EB9F500DE5
:10575000FA9F500D1124640F751F0196285F3F4F6B
:10576000DCCF83E190E00E943C238111B1C0C12CC9
:10577000D12CE12CF12CE614F7047CF5D80112961B
:10578000ED91FC911397EC0DFD1D80809180A2811D
:10579000B381AA0FBB1FAA0DBB1D2D913C91868121
:1057A0009781289F2001299F500C389F500C11246D
:1057B000B201C4010E947723382E920140E050E0EC
:1057C0006981C401CBD18983B8E0CB0ED11C3110E3
:1057D0007FC0EFEFEE1AFE0ACECF61E070E0CE019F
:1057E00001960E94772374C060E070E083E190E04E
:1057F0000E943C236DC040E050E060E070E081E139
:1058000090E0CAD9811164C0812C912C5401C5014A
:10581000B4010E941D0E80919A05882321F0A701F2
:10582000C501B40141DAA701C501B4010E941D0DF3
:105830008A9489288A288B2829F0812C912C54015C
:105840008394E5CF109244081092430810925008B8
:1058500010924F0880914008909141080E94342393
:1058600037C081E090E090939C0580939B0540E0D9
:1058700050E060E070E086E190E01FCF81E0D5016C
:105880008C9326C08D859E850E94BA23009731F4A3
:105890002FEF3FEFA90161E070E013C0FC01208110
:1058A000318142815381CA01B9012C8B3D8B4E8BD2
:1058B0005F8B0E94F4112C893D894E895F8960E0DD
:1058C00070E08EE190E09AD903C0C7010E949B234B
:1058D00067960FB6F894DEBF0FBECDBFDF91CF91B4
:1058E0001F910F91FF90EF90DF90CF90BF90AF90FE
:1058F0009F908F907F906F905F904F903F90089512
:10590000CF92DF92EF92FF92CF93DF93EC01C12C05
:10591000D12C7601C701B6010E941D0EAE01C70150
:10592000B601C2D9AE01C701B6010E941D0D80911A
:105930003C0890913D08009729F03CD510923D0815
:1059400010923C08CA94CD28CE28CF2829F0C12C2B
:10595000D12C7601C394DECF80914308882359F07F
:1059600040E050E060E070E084E190E015D9F82E6E
:105970001092430801C0F12C80914408882341F023
:105980001092440881E090E090934D0380934C0383
:1059900080914008909141080E94372380914008EF
:1059A000909141080E942C238F2DDF91CF91FF9081
:1059B000EF90DF90CF900895CF93DF93EC01AC018F
:1059C00060E070E0CB010E945A16AE0161E070E029
:1059D00080E090E0DF91CF910C945A1660E070E087
:1059E000CB010E94C61661E070E080E090E00C946C
:1059F000C616CF92DF92EF92FF920F931F93CF9331
:105A0000DF93EC016A017B0100E010E098010E9445
:105A1000441201E010E020E030E0B701A601CE0121
:105A20000E944412DF91CF911F910F91FF90EF9050
:105A3000DF90CF90089568EE73E080E090E00E94E0
:105A4000FB1A80E090E0089526E040E050E16EE02F
:105A500070E086EA95E00E94D41D86EA95E00E94F7
:105A60001E1D892B29F086EA95E00E94381DF5CF8E
:105A700080E090E00895AF92BF92CF92DF92EF92D4
:105A8000FF920F931F93CF93DF931F921F92CDB777
:105A9000DEB77A018901F9011182108286EA95E068
:105AA00069837A830E941E1D69817A81892B99F10D
:105AB0005B01DD24D39485E6C82E809151088111C5
:105AC00024C086EA95E00E94381D85369105A9F725
:105AD000D0925108F501C1925F01F8018081918156
