:10000000B5C100000C94A0180C94CB180C94F618F1
:100010000C9421190C944C190C9477190C94A21976
:100020000C94CD19DCC20000AEC30000E9C300008F
:10003000CEC100000C940E21CAC10000C8C100004E
:10004000C6C10000C4C10000C2C10000C0C10000A0
:10005000BEC10000BCC10000BAC100000C94F81978
:10006000B6C100000C94A51D0C94DB1DB0C10000AE
:10007000AEC10000ACC10000AAC10000A8C10000D0
:10008000A6C10000A4C10000A2C10000A0C10000E0
:100090000C94311E0C94671E9AC1000098C1000098
:1000A00096C1000094C1000092C1000090C1000000
:1000B0008EC100008CC100008AC1000088C1000010
:1000C00086C1000084C100000C9497210C94BD1ED1
:1000D0000C94F31E7CC100000C94491F0C947F1FEC
:1000E00076C100007A1844184C18581865188618FC
:1000F0009318291B2E1B331B3D1B471BC01B511B79
:10010000591B611B6B1B751B7F1B8E1B981BC01B18
:10011000A21BAC1BB61BE41BE71BD61BDA1BE01BA8
:100120001E1CEB1BEF1BF51BF91BFD1B031C071C07
:100130000B1C1E1C111C151C191CA929672BD12B6B
:10014000D42BAB2ADE2A682989294C29AE2B9D2B7A
:10015000AA2BD42BD42BD42B372900000A0B02094D
:100160000C0D0E0807030401000000000000000051
:10017000000000000000000000000000000000007F
:10018000000000000000121110000000000000003C
:10019000000000000000000000000000000000005F
:1001A0000102102020080810204010204080020189
:1001B000020108040201010204081020408080406E
:1001C000201008040201800402018040201008046D
:1001D000020108040201010204081020408001020B
:1001E00004081020408005050505070508080808D3
:1001F000020202020A0A08080404040401010101BF
:1002000001010101030303030303030304070707B9
:100210000C0C0C0C0C0C0C0C02020202060606065E
:10022000060606060B0B0B0B0B0B0B0B000022003C
:10023000250028002B002E003100340002010000B0
:10024000050108010B0100002100240027002A00FD
:100250002D003000330001010000040107010A01F4
:1002600002001D3A2774694E53E8F5D2CF9C81A64F
:10027000BBCDD0F7EAB9A4839E25381F02514C6B41
:1002800076879ABDA0F3EEC9D46F7255481B06213C
:100290003C4A57706D3E230419A2BF9885D6CBEC1B
:1002A000F1130E2934677A5D40FBE6C1DC8F92B50D
:1002B000A8DEC3E4F9AAB7908D362B0C11425F7803
:1002C000659489AEB3E0FDDAC77C61465B08153200
:1002D0002F5944637E2D30170AB1AC8B96C5D8FFD9
:1002E000E2263B1C01524F6875CED3F4E9BAA780D1
:1002F0009DEBF6D1CC9F82A5B8031E3924776A4DB9
:1003000050A1BC9B86D5C8EFF24954736E3D2007BF
:100310001A6C71564B1805223F8499BEA3F0EDCAA2
:10032000D735280F12415C7B66DDC0E7FAA9B4938C
:100330008EF8E5C2DF8C91B6AB100D2A3764795E7A
:1003400043B2AF8895C6DBFCE15A47607D2E33147B
:10035000097F6245580B16312C978AADB0E3FED960
:10036000C400041E901E1C1FA81F142011241FBEB1
:10037000CFEFD1E2DEBFCDBF00E00CBF14E0A0E0C4
:10038000B2E0E2ECF4E600E00BBF02C007900D9291
:10039000A434B107D9F729E0A4E4B4E001C01D9268
:1003A000A630B207E1F711E0C6EBD1E000E006C0ED
:1003B00021970109802FFE010E94E330C13BD10744
:1003C00080E00807A9F70E945C2D0C945F3218CEDC
:1003D0009CB195FB882780F994FF03C081110FC061
:1003E00002C0882361F08091480490914904A09153
:1003F0004A04B0914B040196A11DB11D0BC0809120
:10040000480490914904A0914A04B0914B0401978B
:10041000A109B1098093480490934904A0934A0428
:10042000B0934B0408959CB194FB882780F995FF05
:1004300003C0882379F002C081110CC08091480468
:1004400090914904A0914A04B0914B040196A11DDA
:10045000B11D0BC08091480490914904A0914A04B9
:10046000B0914B040197A109B1098093480490937E
:100470004904A0934A04B0934B04089599B193FBA7
:10048000882780F992FF03C081110FC002C0882322
:1004900061F08091560490915704A0915804B09156
:1004A00059040196A11DB11D0BC080915604909175
:1004B0005704A0915804B09159040197A109B109BA
:1004C0008093560490935704A0935804B093590412
:1004D000089599B192FB882780F993FF03C0882380
:1004E00079F002C081110CC080915604909157049C
:1004F000A0915804B09159040196A11DB11D0BC0E3
:100500008091560490915704A0915804B0915904D9
:100510000197A109B1098093560490935704A093C1
:100520005804B093590408952CB1822F807890E03C
:10053000880F892F881F990B26FF03C0892B79F418
:1005400002C0019761F48091640490916504A091C8
:100550006604B09167040196A11DB11D0BC0809186
:10056000640490916504A0916604B09167040197BA
:10057000A109B1098093640490936504A093660473
:10058000B093670408952CB126FB882780F990E08A
:1005900027FF03C0019779F402C0892B61F4809191
:1005A000640490916504A0916604B091670401967B
:1005B000A11DB11D0BC08091640490916504A091B0
:1005C0006604B09167040197A109B109809364049E
:1005D00090936504A0936604B093670408951F92F6
:1005E0000F920FB60F9211242F933F934F935F9367
:1005F0006F937F938F939F93AF93BF9383B185FB4B
:10060000992790F9292F30E086FB882780F94091BF
:100610008804509189042417350779F5482F50E054
:100620005093870440938604882359F0232B61F06C
:100630004091800450918104609182047091830400
:1006400066C02130310561F480918004909181046D
:10065000A0918204B09183040196A11DB11D35C003
:1006600040918004509181046091820470918304D0
:1006700041505109610971093FC0309389042093A9
:1006800088042130310551F58823A1F08091800440
:1006900090918104A0918204B09183040196A11DE0
:1006A000B11D8093800490938104A0938204B09341
:1006B000830447C08091800490918104A0918204BA
:1006C000B09183040197A109B109809380049093AC
:1006D0008104A0938204B093830427C040918004D6
:1006E00050918104609182047091830481110FC044
:1006F0004F5F5F4F6F4F7F4F409380045093810453
:1007000060938204709383049923D9F00EC0415002
:1007100051096109710940938004509381046093E9
:1007200082047093830491110CC080918004909195
:100730008104A0918204B09183040196A11DB11D92
:100740000BC08091800490918104A0918204B091AB
:1007500083040197A109B1098093800490938104D7
:10076000A0938204B0938304BF91AF919F918F9126
:100770007F916F915F914F913F912F910F900FBE9D
:100780000F901F9018951F920F920FB60F92112481
:100790008F939F93AF93BF93809106018170909147
:1007A000030190FF03C081110FC002C0813061F4CA
:1007B0008091720490917304A0917404B0917504B7
:1007C0000196A11DB11D0BC080917204909173041C
:1007D000A0917404B09175040197A109B1098093A7
:1007E000720490937304A0937404B0937504BF9142
:1007F000AF919F918F910F900FBE0F901F90189502
:100800001F920F920FB60F9211248F939F93AF9365
:10081000BF938091030181709091060190FF03C006
:10082000813079F402C081110CC0809172049091E2
:100830007304A0917404B09175040196A11DB11DBB
:100840000BC08091720490917304A0917404B091D4
:1008500075040197A109B109809372049093730400
:10086000A0937404B0937504BF91AF919F918F9141
:100870000F900FBE0F901F9018950F931F93CF935B
:10088000DF938C018EE0809FE001819FD00D1124C9
:10089000CC5BDB4F798368835B834A838881998152
:1008A00060E00E941F1C8A819B8160E00E941F1CE7
:1008B0008881998161E00E945B1C8A819B8161E053
:1008C0000E945B1C0230110509F47FC044F401153D
:1008D0001105E9F00130110509F448C0BEC003302C
:1008E000110509F4A6C00430110509F0B6C08091C5
:1008F000680081608093680080916B0080628093C3
:100900006B0080916B00806480936B00A6C0809127
:1009100044049091450402978431910540F4FC0110
:10092000E550FD4F8081082E000C990B02C08FEF1F
:100930009FEF41E050E068EE71E00E942C1880913A
:1009400046049091470402978431910540F4FC01DC
:10095000E550FD4F8081082E000C990B02C08FEFEF
:100960009FEF41E050E063E172E05DC0809152048E
:100970009091530402978431910540F4FC01E550B5
:10098000FD4F8081082E000C990B02C08FEF9FEF66
:1009900041E050E06EE372E00E942C188091540414
:1009A0009091550402978431910540F4FC01E55083
:1009B000FD4F8081082E000C990B02C08FEF9FEF36
:1009C00041E050E069E672E02EC0809160049091B1
:1009D000610402978431910540F4FC01E550FD4F1C
:1009E0008081082E000C990B02C08FEF9FEF41E031
:1009F00050E064E972E00E942C18809162049091AA
:100A0000630402978431910540F4FC01E550FD4FE9
:100A10008081082E000C990B02C08FEF9FEF41E000
:100A200050E063EC72E0DF91CF911F910F910C9435
:100A30002C18809168008460809368008091680021
:100A400082608093680080916D00816080936D006A
:100A500080916C00826080936C00DF91CF911F9138
:100A60000F9108952EE0269FF001279FF00D11248D
:100A7000EC5BFB4F648175818681978108956623C5
:100A800011F061E001C060E00C941F1C662311F0BE
:100A900061E001C060E00C945B1C2F923F924F928A
:100AA0005F926F927F928F929F92AF92BF92CF92FE
:100AB000DF92EF92FF920F931F93CF93DF93CDB707
:100AC000DEB727970FB6F894DEBF0FBECDBFE0911B
:100AD0009E08F0919F0880819181A281B3818093CB
:100AE000A8089093A908A093AA08B093AB0860E067
:100AF00070E0CB01B7DF0E94F62E2091BA02309150
:100B0000BB024091BC025091BD020E944B304B0190
:100B10005C016093AC087093AD088093AE0890932D
:100B2000AF089B01AC016091BE027091BF02809141
:100B3000C0029091C1020E944B306093B008709344
:100B4000B1088093B2089093B3084090DC085090AD
:100B5000DD086090DE087090DF08C301B2010E94DA
:100B6000F62E69837A838B839C832091CA0230910D
:100B7000CB024091CC025091CD020E945C2E87FFA7
:100B80000BC077FC09C0C090C202D090C302E090B5
:100B9000C402F090C50203C0C12CD12C7601C092D2
:100BA000B408D092B508E092B608F092B70820E0F9
:100BB00030E040E85FE36091C6027091C702809127
:100BC000C8029091C9020E94F72D9B01AC01698176
:100BD0007A818B819C810E94473087FD09C01092E9
:100BE000DC081092DD081092DE081092DF080DC0BC
:100BF000D301C2010196A11DB11D8093DC08909321
:100C0000DD08A093DE08B093DF084090D602509034
:100C1000D7026090D8027090D902A3019201C70157
:100C2000B6010E944730181684F04090DA025090C6
:100C3000DB026090DC027090DD02A3019201C7012B
:100C4000B6010E945C2E87FF09C04092BC085092FA
:100C5000BD086092BE087092BF0808C0C092BC0870
:100C6000D092BD08E092BE08F092BF088091C00803
:100C70008F836090C1087090C208E091C308EE8332
:100C8000E0919E08F0919F0820803180428053803F
:100C9000A2019101682F762D872D9E810E944730F9
:100CA00087FD17C0A20191016091C8087091C90821
:100CB0008091CA089091CB080E94473087FD09C0F7
:100CC0001092B8081092B9081092BA081092BB0896
:100CD00065C0F091C808F9838091C9088D8310918F
:100CE000CA080091CB082F2F382F412F502F6F812A
:100CF000762D872D9E810E945C2EA201910187FF97
:100D000013C069817D81812F902F0E945C2E87FF07
:100D100013C02091CC083091CD084091CE0850915D
:100D2000CF08E981EF831BC06F81762D872D9E81CF
:100D30000E94473087FF09C02091C4083091C50840
:100D40004091C6085091C7080DC02091CC08309141
:100D5000CD084091CE085091CF08F981FF836D8076
:100D6000712E0E83C501B4010E94F72D4B015C0169
:100D70002F81362D472D5E81C201B1010E94F72DD2
:100D80009B01AC01C501B4010E94602E6093B808BC
:100D90007093B9088093BA089093BB082091D2024F
:100DA0003091D3024091D4025091D502C701B601CF
:100DB0000E945C2E682F661F6627661F84E066DE31
:100DC000C090B408D090B508E090B608F090B7088D
:100DD0000091B2021091B302A090B402B090B5029B
:100DE0009801A501B601C7010E944730181694F07A
:100DF0000091DE021091DF02A090E002B090E102CB
:100E00009801A501B601C7010E945C2E87FD02C0B2
:100E1000860157012091E2023091E3024091E40201
:100E20005091E502B801C5010E944B300E94312F5C
:100E30006B017C015DD381111FC0C701B6012FD3A7
:100E400081111AC020E030E040E853E4C701B60148
:100E50000E944B2F6B017C018B01570120E030E099
:100E6000A9010E945C2E87FF0BC0C701B6019058F4
:100E70000E94C82E619508C000E010E0A12CB12CA2
:100E8000B801C5010E94C82E70E08091B6020E9490
:100E9000021BC090C008D090C108E090C208F0903A
:100EA000C3084090F2085090F3086090F4087090E6
:100EB000F508A3019201C701B6010E945C2E0091C2
:100EC0009E0810919F08811110C0F80180819181C6
:100ED000A281B3818093C0089093C108A093C208F7
:100EE000B093C308E4ECF8E029C08090C808909063
:100EF000C908A090CA08B090CB08A3019201C5010F
:100F0000B4010E945C2E811110C0F8018081918192
:100F1000A281B3818093C8089093C908A093CA089E
:100F2000B093CB08ECECF8E009C0A5019401C7012F
:100F3000B6010E945C2E87FDC8CFE7CF8091AC0838
:100F40009091AD08A091AE08B091AF0880839183D5
:100F5000A283B38382E090E00E94D817E0919E08BC
:100F6000F0919F08408151816281738180E090E01F
:100F70000E94D41760918F08709190088091910819
:100F8000909192080E94F42E6B017C01609193086D
:100F90007091940880919508909196080E94F42E83
:100FA00020E030E040E85FE40E944B309B01AC0160
:100FB000C701B6010E94F82D26EA3BE944E45BE351
:100FC0000E944B30AB01BC0181E090E00E94D4173D
:100FD0008090970890909808A0909908B0909A08EF
:100FE00020E030E040E85FEBC501B4010E945C2ED8
:100FF00060909E0870909F08882319F1F301C080CB
:10100000D180E280F380A7019601C501B4010E945E
:10101000F72D4B015C0120E030E040E054E3C701D4
:10102000B6010E944B309B01AC01C501B4010E9486
:101030004730181634F08FE093E09093F3078093D5
:10104000F20780919D08882331F08FE093E0909320
:10105000F3078093F2078091830890918408A09110
:101060008508B0918608BC01CD016F5F7F4F8F4F1F
:101070009F4F6093830870938408809385089093B2
:1010800086086115710581059105A1F40091870815
:10109000109188082091890830918A080F5F1F4FAE
:1010A0002F4F3F4F0093870810938808209389089B
:1010B00030938A08C0908B08D0908C08E0908D08FF
:1010C000F0908E080E94F42EA70196010E944B30EA
:1010D0004B015C01609187087091880880918908B4
:1010E00090918A080E94F42EA70196010E944B302D
:1010F00020E030E040E85FE40E944B309B01AC010F
:10110000C501B4010E94F82DF301608371838283CD
:10111000938380918F0890919008A0919108B0914D
:1011200092080196A11DB11D80938F08909390089D
:10113000A0939108B0939208892B8A2B8B2B99F45A
:101140008091930890919408A0919508B091960889
:101150000196A11DB11D8093930890939408A093CC
:101160009508B093960827960FB6F894DEBF0FBE89
:10117000CDBFDF91CF911F910F91FF90EF90DF9046
:10118000CF90BF90AF909F908F907F906F905F9027
:101190004F903F902F900895CF92DF92EF92FF9261
:1011A0000F931F93CF93DF9384E090E041D1E2EF60
:1011B000F7E086EBDF011D928A95E9F78BE998E06D
:1011C00097838683CEE9D8E0D0933308C093320862
:1011D0000BE818E0158B048BF0935D08E0935C0836
:1011E000F583E48321E030E0DC012D933C9383E23E
:1011F00093E09387828720EA38E03983288340E0B0
:1012000050E064E372E44093970850939808609329
:10121000990870939A0846EA5BE964E47BE3D80195
:101220004D935D936D937C931397C1E7D8E08DE563
:1012300095EFA4EBB0EB88839983AA83BB8388EDF9
:101240009CE9ACECBCE48093750890937608A0937D
:101250007708B093780888E49AE2AEE8B8E980931A
:10126000790890937A08A0937B08B0937C088CE56A
:1012700095E2AAE9BBEA80937D0890937E08A0934B
:101280007F08B0938008A2EAB4E0B383A283ECE9BC
:10129000F4E01196FC93EE9381EE93E091838083CA
:1012A000938382839583848381E898E015969C9349
:1012B0008E9314971396DC93CE93129717963C93C4
:1012C0002E93169728E1E8EAF8E0DF011D922A95AF
:1012D000E9F7C0ECD8E02AE2FE0111922A95E9F77D
:1012E000EAE8F4E022E1DF011D922A95E9F7DC014A
:1012F000ED93FC9380E190E09183808382E992E01A
:101300009383828382E792E0958384838EE292E0E6
:10131000978386838AE092E09187808711E019A7FE
:10132000C12CD12C7601C394CCA2DDA2EEA2FFA2E7
:1013300042E050E063E070E080E090E09EDA1C8ED6
:101340001D8E1E8E1F8E18A7C8A2D9A2EAA2FBA2CC
:1013500061E084E094DB61E08091B6020E941F1C92
:101360008091F2089091F308A091F408B091F508EB
:1013700088839983AA83BB8388879987AA87BB8739
:10138000DF91CF911F910F91FF90EF90DF90CF9061
:1013900008958091E4089091E508A091E608B09145
:1013A000E7080197A105B10561F482E090E0A0E0B3
:1013B000B0E08093E4089093E508A093E608B0932A
:1013C000E7088091E0089091E108A091E208B091CF
:1013D000E3080197A105B10561F482E090E0A0E087
:1013E000B0E08093E0089093E108A093E208B09306
:1013F000E308089560E070E080E89FE7089560E00A
:1014000070E080E89FE7089560E070E080E89FEF7B
:10141000089560E070E080E89FEF089560E070E07C
:1014200080EC9FEF089560E070E080EC9FEF0895FE
:10143000F5DF6093F6087093F7088093F8089093AF
:10144000F908F1DF6093EA087093EB088093EC08E9
:101450009093ED08CFDF6093F2087093F3088093C8
:10146000F4089093F508CBDF6093EE087093EF08D3
:101470008093F0089093F108C7DF6093FA087093A7
:10148000FB088093FC089093FD08C3DF6093FE087F
:101490007093FF0880930009909301090895CF92FB
:1014A000DF92EF92FF92CF936B017C012091EE08C7
:1014B0003091EF084091F0085091F1080E945C2EA5
:1014C000C1E0882371F02091FE083091FF0840911F
:1014D000000950910109C701B6010E945C2E8111DB
:1014E000C0E08C2FCF91FF90EF90DF90CF900895C8
:1014F000CF93C1E09B01AC010E945C2E811101C021
:10150000C0E08C2FCF910895EF92FF920F931F931D
:10151000CF93DF93DC01EA01F90114968D919C9140
:10152000159712960D911C911397080F191F28817A
:10153000398118964D915C9119974217530728F0FD
:101540004D915C911197452B39F17801E21AF30A1C
:1015500018964D915C911997481B590B4E0D5F1DC4
:101560004617570794F1A901460F571F4017510717
:10157000E0F0F182E082338322836E197F09758364
:101580006483161617061CF4382F292F02C030E08A
:1015900020E03683278313C018968D919C9119976C
:1015A000821B930B8617970784F0718360833383C4
:1015B0002283158214821782168288819981680F8E
:1015C000791F7983688380E001C081E0DF91CF914A
:1015D0001F910F91FF90EF900895CF92DF92EF92BD
:1015E000FF92CF93DF936B017C0184E48C9DE0013B
:1015F0008D9DD00D1124C255DB4F8AA99BA9009760
:1016000021F00E94AE311BAA1AAA84E48C9DF0013D
:101610008D9DF00D1124E255FB4F86A997A90097E7
:1016200011F00E94AE3184E48C9DF0018D9DF00D8F
:101630001124E255FB4F138A128A168A178A108EDC
:10164000118E128E138E148E158E168E178E10A27A
:1016500011A281E090E093A382A315A214A216A286
:1016600017A210A611A613A612A615A614A616A6B2
:1016700017A610AA11AA13AA12AA15AA14AA17AA81
:1016800016AA11AE10AE12AE13AE14AE15AEDF0137
:10169000DE961D921D921D921C921397EE5BFF4FDA
:1016A00011821082DF91CF91FF90EF90DF90CF9069
:1016B00008950F931F93CF93DF93EB01DC018D917E
:1016C0009C91FC01A681B781E881F98123E0EE0FAE
:1016D000FF1F2A95E1F712962D913C911397E20F87
:1016E000F31F00811181AC85BD859D01220F331F41
:1016F000DC0112968D919C911397D901A80FB91F07
:101700008D919C9124813581232B19F461E070E047
:1017100002C062E070E0689F9001699F300D789F81
:10172000300D112488859985289FB001299F700D5F
:10173000389F700D1124EC81FD812E9FC0012F9FD9
:10174000900D3E9F900D1124800F911FFA019183FF
:10175000808373836283DF91CF911F910F910895EE
:101760002F923F924F925F926F927F928F929F92B1
:10177000AF92BF92CF92DF92EF92FF920F931F939F
:10178000CF93DF9300D000D0CDB7DEB7DC01149645
:10179000ED91FC9115970190F081E02D8085918568
:1017A0009A838983A281B381BC83AB83FB0181903F
:1017B0009190A190B1908F01C12CD12C7601C814C9
:1017C000D904EA04FB040CF05FC0D80114964D90D4
:1017D0005D906D907C90179718964D915D916D91ED
:1017E0007C911B97F8017096FE83ED83F801A08130
:1017F000B18183E0AA0FBB1F8A95E1F7E981FA81E5
:1018000082819381A80FB91F2D903C901197F80108
:1018100024853585220F331F8B819C81280F391F2A
:10182000F9010081118114968D919C911597892B56
:1018300019F481E090E002C082E090E0809F900186
:10184000819F300D909F300D1124249F8001259F92
:10185000100D349F100D1124249DC001259D900D65
:10186000349D900D1124A8016D817E81820D931D00
:101870000E9446328D819E81080F191F9FEFC91A61
:10188000D90AE90AF90A9BCF26960FB6F894DEBF6B
:101890000FBECDBFDF91CF911F910F91FF90EF90C1
:1018A000DF90CF90BF90AF909F908F907F906F9080
:1018B0005F904F903F902F900895CF93DF93DB017F
:1018C000AA51BD4F2C91222369F024E4269FF001F8
:1018D000279FF00D1124E255FB4FEF0119922A9535
:1018E000E9F71C9224E4269FF001279FF00D1124B4
:1018F000E255FB4F148215821682178211861086DC
:1019000013861286118A108A17861686DF91CF9168
:1019100064CE2F923F924F925F926F927F928F92FE
:101920009F92AF92BF92CF92DF92EF92FF920F936E
:101930001F93CF93DF93CDB7DEB728970FB6F894F8
:10194000DEBF0FBECDBF6B017C011A0184E48C9D0C
:1019500090018D9D300D112422553B4FF90184815A
:101960009581A681B781892B8A2B8B2B09F4B8C06E
:10197000A12CB12C412C512C320138872F83C90165
:1019800004969A838983D9011896BC83AB83E98135
:10199000FA8180819181A281B381481659066A0635
:1019A0007B0694F5AB81BC81ED91FC91EA0DFB1DAA
:1019B000228133818901812C912C82149304C4F4F7
:1019C000D801ED91FC91309769F0848195812D8348
:1019D0003E830E94AE31F801808191810E94AE3138
:1019E0003E812D81FFEF8F1A9F0A0E5F1F4FE5CFBB
:1019F000C9010E94AE318FEF481A580A680A780A66
:101A000094E0A90EB11CC3CFAF81B88518968D9113
:101A10009C9119970E94AE31EF81F885828593855C
:101A2000892B59F1A12CB12C812C912C84E48C9D13
:101A300080018D9D100D112408541B4F82149304B6
:101A400084F4D801ED91FC91EA0DFB1D8481958110
:101A50000E94AE31BFEF8B1A9B0AEEE0AE0EB11CB6
:101A6000EDCF84E48C9DF0018D9DF00D1124E255A5
:101A7000FB4F828593850E94AE3184E48C9D90015A
:101A80008D9D300D1124890102551B4FD8015096B0
:101A90008D919C9151970E94AE31F8018685978572
:101AA0000E94AE31C701B60198DDC701B601289684
:101AB0000FB6F894DEBF0FBECDBFDF91CF911F915F
:101AC0000F91FF90EF90DF90CF90BF90AF909F90DD
:101AD0008F907F906F905F904F903F902F90EDCEC2
:101AE00028960FB6F894DEBF0FBECDBFDF91CF9121
:101AF0001F910F91FF90EF90DF90CF90BF90AF902C
:101B00009F908F907F906F905F904F903F902F901D
:101B1000089524E4269FF001279FF00D1124E2553B
:101B2000FB4F828993890497029758F485E090E0EF
:101B3000938B828B8FEF9FEFDC01828F938FA48F2B
:101B4000B58F08952F923F924F925F926F927F923E
:101B50008F929F92AF92BF92CF92DF92EF92FF92BD
:101B60000F931F93CF93DF93CDB7DEB7E0970FB6F8
:101B7000F894DEBF0FBECDBF9AA389A31B016A01F3
:101B80002801390184E4849D8001859D100D112474
:101B9000980122553B4F7901D9014D925D926D928A
:101BA0007C921397AB01C301B201B3DEF801EE548E
:101BB000FB4FD6014D915D916D917D918D01CA01D3
:101BC000408351836283738364E070E00E94FF303E
:101BD000F70191878087892B09F499C11E8E1D8E8C
:101BE000198E1A8E1B8E1C8EF8A2EF8E97012C5F19
:101BF0003F4F38A72FA32C5F3F4F3AA729A7EFA14C
:101C0000F8A580819181A281B381298D3A8D4B8D78
:101C10005C8D281739074A075B070CF0E4C0A9A5BB
:101C2000BAA58D919C912D8D3E8D280F391F3A8B31
:101C3000298BD801ED91FC91EE0FFF1FA9A1BAA14C
:101C40008D919C91E80FF91F80819181F901918319
:101C50008083D80114962D913D914D915C911797F9
:101C60002BA33CA34DA35EA3085F1F4F62E070E06F
:101C7000C1010E94FF30E989FA8993838283892B0D
:101C800009F445C11D8A1E8A1F8A188E2D893E8936
:101C90004F89588D8BA19CA1ADA1BEA128173907F2
:101CA0004A075B070CF08CC0D801ED90FC90EE0C5D
:101CB000FF1CE989FA89C280D380CE0CDF1C68E062
:101CC00070E081E090E00E94FF30D6018D939C93FC
:101CD000E989FA8982819381FC01EE0DFF1DC080A4
:101CE000D180C114D10409F412C1D80114964D91C8
:101CF0005D916D917C911797CA01F60140835183E4
:101D000062837383085F1F4F64E070E00E94FF30BE
:101D1000D60115969C938E931497892B09F4F7C0DE
:101D20001C8A1B8A812C912C5401F601808191819F
:101D3000A281B38188169906AA06BB06A4F5F6010E
:101D4000E480F5802B893C89E20EF31EF801DE0168
:101D5000119680E101900D928A95E1F7005F1F4F87
:101D6000A701BE016F5F7F4FA9A1BAA114968D9103
:101D70009C9115979EDCF60126813781D70112963A
:101D80008D919C911397820F931F97838683BFEF4A
:101D90008B1A9B0AAB0ABB0A2B893C892C5F3F4FED
:101DA0003C8B2B8BC2CF2D893E894F89588D2F5F5D
:101DB0003F4F4F4F5F4F2D8B3E8B4F8B588F66CFD2
:101DC000298D3A8D4B8D5C8D2F5F3F4F4F4F5F4F6D
:101DD000298F3A8F4B8F5C8F2D8D3E8D2C5F3F4F1F
:101DE0003E8F2D8F0CCF6EE070E0C1010E94FF305E
:101DF000AF8DB8A11B969C938E931A97812C912C32
:101E0000A12CB12CC12CD12C24E4249DC001259DF2
:101E1000900D11249C0128543B4F3A8B298B21E0D3
:101E200030E0A214B3040CF04AC0D8014D915D918A
:101E30006D917D918D01CA01E989FA89E080F18077
:101E4000E80CF91C57FD63C0D70111963C932E9303
:101E50000097A1F02FA738AB4BA75CA76DA77EA773
:101E60000E941931F701958384832FA538A94BA5CA
:101E70005CA56DA57EA5892B31F449C0D7011596C7
:101E80001C921E921497F70153834283848195819B
:101E900097838683918780871386128681E090E0FE
:101EA000452B462B472B11F480E090E0C80ED91E3D
:101EB000FFEFAF1ABF0A4EE0840E911CB2CF84E44C
:101EC000849D8001859D100D112402551B4FD80162
:101ED0001D961C921E921C97C60133E0880F991F15
:101EE0003A95E1F70E941931F801918B808B892B8B
:101EF00071F0C601880F991F0E941931D8011F96F1
:101F00009C938E931E97892B11F080E005C0A10150
:101F1000C301B201FEDC81E0E0960FB6F894DEBFAB
:101F20000FBECDBFDF91CF911F910F91FF90EF902A
:101F3000DF90CF90BF90AF909F908F907F906F90E9
:101F40005F904F903F902F9008952F923F924F9225
:101F50005F926F927F928F929F92AF92BF92CF9239
:101F6000DF92EF92FF920F931F93CF93DF93CDB742
:101F7000DEB768970FB6F894DEBF0FBECDBF9C8B5F
:101F80008B8BDB0149015A0124E4289DC001299D66
:101F9000900D11249C0122553B4F79012D913C91CC
:101FA0001197F701358B248BFC01EC53FB4F1496F2
:101FB0004D915D916D917C91179740835183628320
:101FC0007383FC01E853FB4F18964D915D916D9121
:101FD0007C911B974083518362837383FC01E4539C
:101FE000FB4F1C964D915D916D917C911F974083A5
:101FF000518362837383FC01E452FB4F50965C91E2
:10200000509751964C91519752963C9152975396B6
:102010002C91539750834183328323838D010C5E2F
:102020001F4F852F942F181619060CF068C0880FC3
:10203000991F880F991F0E941931D701D3969C933D
:102040008E93D297892B09F4BCC0212C312C412CC2
:10205000512C32019701225D3F4F3E8B2D8B2C5F1F
:102060003F4F388F2F8B2E5F3F4F3A8B298BB30119
:10207000A2012FEF421A520A620A720AED89FE8902
:1020800080819181A281B381481759076A077B0734
:102090004CF5AF89B88DCD90DC90C20CD31CF80103
:1020A000DE01119680E101900D928A95E1F7005FC3
:1020B0001F4FA601BE016F5F7F4FEB89FC898481B2
:1020C0009581F7DAA989BA898D919C911197F601CA
:1020D00022813381820F931F8D939C93F4E02F0E06
:1020E000311CC5CFD701D4968D919C91D5970E9474
:1020F0001931F70197AB86AB892B09F462C0F8015F
:1021000080819181A281B38124E4289DF001299DE1
:10211000F00D1124E255FB4FAC01BD014D7F21E0D4
:1021200030E0452B462B472B11F020E030E033A365
:1021300022A324E4289DF001299DF00D1124E255ED
:10214000FB4F0197A109B10921E030E00297A105F9
:10215000B10510F020E030E035A324A384E4889D8D
:10216000F001899DF00D1124CF018C529B4FD801B5
:1021700014964D915D916D917C911797DC014D9373
:102180005D936D937C931397E255FB4F868D978DEE
:10219000A0A1B1A1B7FF10C0B095A0959095819571
:1021A0009F4FAF4FBF4F82AF93AFA4AFB5AF168E67
:1021B000178E10A211A20AC012AE13AE14AE15AE45
:1021C00005C0C501B40109DA81E001C080E068966C
:1021D0000FB6F894DEBF0FBECDBFDF91CF911F9138
:1021E0000F91FF90EF90DF90CF90BF90AF909F90B6
:1021F0008F907F906F905F904F903F902F900895B9
:10220000CF92DF92EF92FF92CF93DF931092360539
:1022100024E4269FF001279FF00D1124E255FB4F87
:1022200015A614A620E030E0C12CD12CDF011A96AF
:10223000C1E0D0E0C416D506D4F4ED91FC9111971D
:10224000E20FF31FE280F3801E141F0454F4E480B5
:10225000F580F782E682F186E08613861286D183C6
:10226000C083EFEFCE1ADE0A225F3F4FE3CF24E4B4
:10227000269FF001279FF00D1124E255FB4F13A676
:1022800012A611AE10AEDF01DE961D921D921D92B8
:102290001C92139782E090E0938B828BDF91CF9119
:1022A000FF90EF90DF90CF90089524E4269FF001F7
:1022B000279FF00D1124E255FB4F138A128A29CB78
:1022C00024E4269FF001279FF00D1124E255FB4FD7
:1022D0008289938981309105C8F08530910518F085
:1022E000059769F008958FEF9FEFDC01828F938F40
:1022F000A48FB58F85E090E0938B828B08958FEF4C
:102300009FEFDC01828F938FA48FB58F089524E413
:10231000249FF001259FF00D1124E255FB4F2EE084
:10232000AC01249FC001259F900D11240284F385E8
:10233000E02DE80FF91F81E08093360582859385B3
:1023400091878087408551852681378181E090E0A3
:102350004217530711F080E090E091838083089545
:102360002F923F924F925F926F927F928F929F92A5
:10237000AF92BF92CF92DF92EF92FF920F931F9393
:10238000CF93DF93CDB7DEB7C255D1090FB6F8941E
:10239000DEBF0FBECDBF21969FAF8EAF21974BA75B
:1023A0005CA76DA77EA74801590184E4889D800140
:1023B000899D100D1124F801E255FB4F22853385CC
:1023C00027963FAF2EAF279782899389029709F00E
:1023D00060C186A597A5A0A9B1A9892B8A2B8B2BB3
:1023E00029F484E090E0938B828B53C18489958992
:1023F00021964EAD5FAD21974817590709F049C1A5
:1024000086A997A99AAB89AB1EAE1DAE19AE1AAEBE
:102410001BAE1CAE8F01DF019E962996BFAFAEAFFB
:102420002997F2962B96FFAFEEAF2B979801285C79
:102430003F4F2D963FAF2EAF2D97A8014A5D5F4FBE
:102440002F965FAF4EAF2F97C801829661969FAFD0
:102450008EAF61971A976396BFAFAEAF6397299619
:10246000EEADFFAD299780819181A281B38129AD25
:102470003AAD4BAD5CAD281739074A075B070CF046
:10248000E7C02B96EEADFFAD2B97808191812DADEE
:102490003EAD280F391F3EAB2DABD90112960D90E2
:1024A000BC91A02D2396BFAFAEAF2397B695A7954D
:1024B000B695A7952596BFAFAEAF25972D96EEADF5
:1024C000FFAD2D9780819181892B09F496C02F96BD
:1024D000AEADBFAD2F97CD90DD90ED90FC9029A8CB
:1024E0003AA8F9010190F081E02DF8ABEFA718AE02
:1024F0001FAA8FA998AD2596AEADBFAD25978A17B7
:102500009B070CF07AC06196AEADBFAD61978D911F
:102510009C91892B69F1EFA5F8A9408051806280D8
:102520007380A7019601C301B2010E94473087FD65
:102530000BC0A7019601D1016D917D918D919C9168
:102540000E945C2E87FD8CC0A7019601C301B201D9
:102550000E944730181664F4A7019601F1016081CA
:102560007181828193810E945C2E882309F478C056
:102570006396AEADBFAD63978D919C91892B69F148
:10258000EFA5F8A94080518062807380A701960171
:10259000C301B2010E945C2E87FF0BC0A701960108
:1025A000D1016D917D918D919C910E94473087FF63
:1025B00057C0A7019601C301B2010E945C2E811190
:1025C0000CC0A7019601F101608171818281938124
:1025D0000E94473018160CF443C02FA938AD2F5F66
:1025E0003F4F38AF2FAB34E0230E311C4FA558A915
:1025F0004C5F5F4F58AB4FA77CCFEDA9FEA9608120
:10260000718123964EAD5FAD239789A99AA90E9447
:10261000463225968EAD9FAD2597880F991F880F5E
:10262000991F29A93AA9280F391F3AAB29AB89ADBF
:102630009AADABADBCAD0196A11DB11D89AF9AAFEE
:10264000ABAFBCAFADADBEAD1496BEAFADAF07CFB7
:1026500081E090E0D801D9969C938E93D89719C0C9
:1026600084E4889DF001899DF00D1124E255FB4F13
:10267000868D978DA0A1B1A1892B8A2B8B2B09F078
:1026800064C284E090E0938B828B86AD97AD93A774
:1026900082A784E4889DF001899DF00D1124E25504
:1026A000FB4F828993898230910571F482AD93AD9D
:1026B000A4ADB5AD181619061A061B060CF04CC2CF
:1026C000CC24C394D12C05C0049709F045C2C12C79
:1026D000D12C8EE02196EEADFFAD21978E9F70013B
:1026E0008F9FF00C112427962EAD3FAD2797E20E59
:1026F000F31ED70112964D915C9113974115510528
:1027000009F42AC216968D919C9117979AA789A7CA
:10271000FE01319684E1DF011D928A95E9F7898AED
:102720009A8AAB8ABC8AC114D10409F457C084E4E4
:10273000889DF001899DF00D1124E255FB4FDF01CA
:10274000DE964D905D906D907C9082AD93ADA4AD82
:10275000B5AD481659066A067B0609F03FC0F70179
:10276000648175810084F185E02D84819581A68145
:10277000B7819C018D8B9E8BAF8BB88F285F3F4FAD
:102780003E8B2D8BD70118968D919C911997280F10
:10279000391F19963C932E93189718968D919C91FA
:1027A0001997460F571F841B950B97FD06C0860F80
:1027B000971F19969C938E93189784E4889DF00137
:1027C000899DF00D1124E451FB4FB1E04B1A5108E3
:1027D0006108710840825182628273829E012B5E81
:1027E0003F4FAE01475D5F4F64E170E0C7010E945B
:1027F000840A082F10E00115110509F091C18CE041
:1028000090E0A0E0B0E08D839E83AF83B8879E0107
:10281000235E3F4FAE01475D5F4F64E070E0C7014C
:102820000E94840A082F10E00115110509F078C1F3
:1028300080E190E0A0E0B0E08D839E83AF83B88715
:102840004D8D5E8DBE01655D7F4F8F8D98A10E947D
:1028500046328BA19CA1009761F06D8D7E8DEBE2DD
:10286000F0E0EC0FFD1F6E0F7F1F49A15AA10E94DF
:1028700046321DA21EA21FA218A621962EAD3FAD64
:102880002197220F331F38AF2FAB24E4289DC001BE
:10289000299D900D112482559B4FAC014C5F5F4FD9
:1028A0005AAF49AFDC011896BEAFADAF2DA13EA126
:1028B0004FA158A529AB3AAB4BAB5CABE9ADFAAD38
:1028C00080819181A281B381281739074A075B076C
:1028D0000CF0CFC0ADADBEADED91FC9189A99AA928
:1028E000880F991F880F991FE80FF91FA081B181E8
:1028F0008C91882309F4AFC0833009F4ACC0028006
:10290000F381E02D2FA938ADE20FF31F40815181F3
:1029100058AB4FA7452B09F49EC089859A85AB8596
:10292000BC850196A11DB11D89879A87AB87BC879D
:102930009E01235E3F4FAE01475D5F4F64E070E054
:10294000C7010E94840A90E0009709F0E8C08D81D9
:102950009E81AF81B8850496A11DB11D8D839E8394
:10296000AF83B8874D8D5E8DBE016B5D7F4F8F8DC0
:1029700098A10E9446328BA19CA1009761F06D8DB9
:102980007E8DA5E2B0E0AC0FBD1F6A0F7B1F49A191
:102990005AA10E9446321EAA1DAA412C512C320176
:1029A000EFA5F8A980819181A281B38148165906CB
:1029B0006A067B060CF04FC0EFA5F8A9248035808D
:1029C0002DA93EA9220E331ED10112966D917C9144
:1029D00013979E01235E3F4FAE01475D5F4FC701D6
:1029E0000E94840A90E0009709F099C0F101828169
:1029F0009381092E000CAA0BBB0B4D815E816F8168
:102A00007885840F951FA61FB71F8D839E83AF8384
:102A1000B887608171814D8D5E8D8F8D98A10E94E8
:102A200046328BA19CA1009759F0D1016D917C9108
:102A30002D8D3E8D620F731F49A15AA10E9446320F
:102A4000BFEF4B1A5B0A6B0A7B0AEDA9FEA934960D
:102A5000FEABEDABA5CF49A85AA86BA87CA8FFEFA9
:102A60004F1A5F0A6F0A7F0A4DA25EA26FA278A674
:102A70001DCF89859A85AB85BC85892B8A2B8B2BAD
:102A800009F44EC08AE190E0A0E0B0E089839A8327
:102A9000AB83BC8321962EAD3FAD2197C901330F87
:102AA000AA0BBB0B8D879E87AF87B88B4D895E893C
:102AB000BE016F5F7F4F8F89988D0E9446328B8D4C
:102AC0009C8D009761F06D897E8941E050E04C0F4C
:102AD0005D1F640F751F498D5A8D0E94463289A56E
:102AE0009AA5D70117969C938E93169711961C92D0
:102AF0001E92CD2889F184E4889DF001899DF00D16
:102B00001124E451FB4F80819181A281B381019610
:102B1000A11DB11D80839183A283B3831DC08C014D
:102B2000CD28D1F4012BC1F084E4889DF001899D6A
:102B3000F00D1124E255FB4F81E090E095A784A7AA
:102B400085E090E0938B828B07C083E090E0938BCD
:102B5000828B81E090E09BCDCE5ADF4F0FB6F89488
:102B6000DEBF0FBECDBFDF91CF911F910F91FF90C0
:102B7000EF90DF90CF90BF90AF909F908F907F901D
:102B80006F905F904F903F902F900895CF92DF927B
:102B9000EF92FF920F931F936B017C0184E48C9D55
:102BA000F0018D9DF00D1124E255FB4F8289938930
:102BB000009709F450C00197B9F482A593A59C0130
:102BC0002F5F3F4F33A722A7092E000CAA0BBB0B88
:102BD000028D138D248D358D80179107A207B307C1
:102BE000D1F5C701B6010CDB84E48C9DF0018D9D0D
:102BF000F00D1124E255FB4F82899389039759F513
:102C000082A593A59C012F5F3F4F33A722A7092ED2
:102C1000000CAA0BBB0B468D578D60A171A18417C8
:102C20009507A607B707BCF086AD97AD93A782A717
:102C300084E090E0938B828B82AD93ADA4ADB5AD73
:102C4000181619061A061B0634F4EE5BFF4F81E0D6
:102C500090E0918380831F910F91FF90EF90DF9020
:102C6000CF90089524E4269FF001279FF00D1124B2
:102C7000E255FB4F828993890497B1F482A593A50D
:102C8000019693A782A7092E000CAA0BBB0B4689BD
:102C90005789608D718D84179507A607B70721F4B2
:102CA00085E090E0938B828B08952F923F924F9214
:102CB0005F926F927F928F929F92AF92BF92CF92CC
:102CC000DF92EF92FF920F931F93CF93DF93CDB7D5
:102CD000DEB72E970FB6F894DEBF0FBECDBF498387
:102CE0005A836B837C834901442E552E24E4249D12
:102CF000F001259DF00D1124E255FB4F2288338809
:102D0000910124503109158614862230310508F0CE
:102D1000DDC0DC0111961C921E9213961C921E922D
:102D20001297A12CB12C60E070E09F01265F3F4F0D
:102D300038872F837F013CE0E30EF11CDF015096C2
:102D4000BA87A9879F01225F3F4F3C872B87681571
:102D500079050CF06FC0EF81F885A081B1819D01EC
:102D60002A0D3B1D3E872D87D9012D913C9111974E
:102D7000232B09F059C018960D911C9119971296A2
:102D8000ED91FC911397FE83ED8316962D913C9166
:102D90001797D7014D915C91DA01E3E0AA0FBB1FB1
:102DA000EA95E1F7E985FA85C080D180FD01EC0D57
:102DB000FD1D440F551FAB85BC85CD90DC904C0D9F
:102DC0005D1DDA016D937C93D7014D915C91119754
:102DD0004F5F5F4F4D935C9313830283AD85BE8538
:102DE0001B963C932E931A970217130748F4201B47
:102DF000310B31832083158214821782168214C00E
:102E0000AD85BE851496CD90DC9015974D815E8181
:102E10004C0D5D1D401B510B518340832C193D0906
:102E200035832483D782C6826F5F7F4FBEE0AB0EAF
:102E3000B11C8DCF24E4249D8001259D100D11240B
:102E400002551B4FF80124853585DC0111963C9312
:102E50002E934089518913965C934E931297468521
:102E6000578515965C934E931497232BA1F5B5E0E7
:102E70002B16310481F510923605828D938DA48D29
:102E8000B58DAE014F5F5F4F64E070E08F3F9F4FA5
:102E9000AF4FBF4F59F480E290E00E94382569811E
:102EA0007A818B819C81A40100DA15C08FE190E0CA
:102EB0000E943825D8019B961C921E929A9781E019
:102EC00090E053969C938E93529705C0FC0111821B
:102ED0001082138212822E960FB6F894DEBF0FBEB8
:102EE000CDBFDF91CF911F910F91FF90EF90DF90B9
:102EF000CF90BF90AF909F908F907F906F905F909A
:102F00004F903F902F900895EF92FF920F931F9351
:102F1000CF93DF937C018B01EA010E94BB258111D5
:102F200021C08091E8029091E902049711F183E0B9
:102F300090E09093E9028093E8021BC09881911180
:102F4000F0CF28ED38EB45E050E060E070E0CB01D9
:102F50000E944528AE01B801C7010E945328C8014C
:102F60000E941E288091370590913805892B31F3F6
:102F7000D8CFDF91CF911F910F91FF90EF900895DF
:102F8000CF93DF932091E8023091E902243031059C
:102F900041F0EB010E945328CE01DF91CF910C94B8
:102FA0001E28DF91CF9108950C94652C0C945A2C17
:102FB0000C94482C0C942E280C94EC2B089560E073
:102FC00070E080E090E00C9496250895AF92BF9257
:102FD000CF92DF92EF92FF920F931F93CF93DF93E5
:102FE0001F921F92CDB7DEB75C0169017A018B0198
:102FF00080E090E0C114D104E104F104F1F0C114C7
:10300000D10421E0E206F10410F4A60102C04FEF62
:103010005FEF9E012F5F3F4FB801C5010E94062D53
:103020008F3F2FEF920749F029813A81C21AD30AC4
:10303000E108F108020F131FDDCF0F900F90DF9111
:10304000CF911F910F91FF90EF90DF90CF90BF90A5
:10305000AF90089508950895883008F070C0A82FA3
:10306000B0E0AA0FBB1FA651BD4F11967C936E9383
:1030700090E0FC013197E730F105A0F58827EE5884
:10308000FF4F8F4F0C94E330809169008C7F482B69
:1030900040936900E89A089580916900440F551F94
:1030A000440F551F837F482B40936900E99A089588
:1030B0008091690074E0440F551F7A95E1F78F7C89
:1030C000482B40936900EA9A08958091690066E070
:1030D000440F551F6A95E1F78F73482B40936900A1
:1030E000EB9A089580916A008C7F482B40936A0088
:1030F000EC9A089580916A00440F551F440F551FA4
:10310000837F482B40936A00ED9A089580916A006E
:1031100024E0440F551F2A95E1F78F7C482B4093FC
:103120006A00EE9A089580916A0096E0440F551F58
:103130009A95E1F78F73482B40936A00EF9A0895B0
:103140001F920F920FB60F9211240BB60F922F936E
:103150003F934F935F936F937F938F939F93AF931F
:10316000BF93EF93FF93E091EE02F091EF02199578
:10317000FF91EF91BF91AF919F918F917F916F914F
:103180005F914F913F912F910F900BBE0F900FBE0B
:103190000F901F9018951F920F920FB60F92112447
:1031A0000BB60F922F933F934F935F936F937F9341
:1031B0008F939F93AF93BF93EF93FF93E091F002B0
:1031C000F091F1021995FF91EF91BF91AF919F910D
:1031D0008F917F916F915F914F913F912F910F90C0
:1031E0000BBE0F900FBE0F901F9018951F920F925D
:1031F0000FB60F9211240BB60F922F933F934F935C
:103200005F936F937F938F939F93AF93BF93EF934E
:10321000FF93E091F202F091F3021995FF91EF9183
:10322000BF91AF919F918F917F916F915F914F91DE
:103230003F912F910F900BBE0F900FBE0F901F90DC
:1032400018951F920F920FB60F9211240BB60F9282
:103250002F933F934F935F936F937F938F939F939E
:10326000AF93BF93EF93FF93E091F402F091F502D7
:103270001995FF91EF91BF91AF919F918F917F91A0
:103280006F915F914F913F912F910F900BBE0F90D7
:103290000FBE0F901F9018951F920F920FB60F92AE
:1032A00011240BB60F922F933F934F935F936F931D
:1032B0007F938F939F93AF93BF93EF93FF93E0918F
:1032C000EA02F091EB021995FF91EF91BF91AF9156
:1032D0009F918F917F916F915F914F913F912F912E
:1032E0000F900BBE0F900FBE0F901F9018951F925E
:1032F0000F920FB60F9211240BB60F922F933F939C
:103300004F935F936F937F938F939F93AF93BF93ED
:10331000EF93FF93E091EC02F091ED021995FF918C
:10332000EF91BF91AF919F918F917F916F915F913D
:103330004F913F912F910F900BBE0F900FBE0F90AA
:103340001F9018951F920F920FB60F9211240BB673
:103350000F922F933F934F935F936F937F938F932E
:103360009F93AF93BF93EF93FF93E091F602F09199
:10337000F7021995FF91EF91BF91AF919F918F91B6
:103380007F916F915F914F913F912F910F900BBE65
:103390000F900FBE0F901F9018951F920F920FB6AF
:1033A0000F9211240BB60F922F933F934F935F937D
:1033B0006F937F938F939F93AF93BF93EF93FF93FD
:1033C000E091F802F091F9021995FF91EF91BF9108
:1033D000AF919F918F917F916F915F914F913F91AD
:1033E0002F910F900BBE0F900FBE0F901F9018954E
:1033F0001F920F920FB60F9211242F933F938F932A
:103400009F93AF93BF9380913A0590913B05A09114
:103410003C05B0913D053091390523E0230F2D3750
:1034200020F40196A11DB11D05C026E8230F0296C8
:10343000A11DB11D2093390580933A0590933B055A
:10344000A0933C05B0933D0580913E0590913F05CA
:10345000A0914005B09141050196A11DB11D809339
:103460003E0590933F05A0934005B0934105BF9161
:10347000AF919F918F913F912F910F900FBE0F9021
:103480001F9018953FB7F89480913E0590913F05A5
:10349000A0914005B091410526B5A89B05C02F3FDE
:1034A00019F00196A11DB11D3FBFBA2FA92F982F6A
:1034B0008827820F911DA11DB11DBC01CD0142E0E5
:1034C000660F771F881F991F4A95D1F708958F922D
:1034D0009F92AF92BF92CF92DF92EF92FF926B01D9
:1034E0007C01D0DF4B015C01C114D104E104F10483
:1034F000F1F0B0DDC7DFDC01CB0188199909AA0919
:10350000BB09883E9340A105B10570F321E0C21AC2
:10351000D108E108F10888EE880E83E0981EA11C0E
:10352000B11CC114D104E104F10421F7DDCFFF90F7
:10353000EF90DF90CF90BF90AF909F908F900895C5
:10354000789484B5826084BD84B5816084BD85B57E
:10355000826085BD85B5816085BDEEE6F0E0808145
:1035600081608083E1E8F0E0108280818260808366
:10357000808181608083E0E8F0E0808181608083E9
:10358000E1EBF0E0808184608083E0EBF0E080811B
:1035900081608083E1E9F0E08081826080838081C6
:1035A00081608083E0E9F0E0808181608083E1EAEE
:1035B000F0E0808182608083808181608083E0EAA6
:1035C000F0E0808181608083E1E2F1E080818260CF
:1035D0008083808181608083E0E2F1E0808181608E
:1035E0008083EAE7F0E0808184608083808182606C
:1035F0008083808181608083808180688083109255
:10360000C10008951F93CF93DF93182FEB0161E062
:1036100016D1209711F460E004C0CF3FD10531F4FA
:1036200061E0812FDF91CF911F9145C1E12FF0E043
:10363000E65AFE4FE4914E2F50E0FA013197E23105
:10364000F10508F09DC08827E758FF4F8F4F0C9475
:10365000E33084B5806884BDC7BD97C084B58062FF
:1036600084BDC8BD92C08091800080688093800036
:10367000D0938900C093880088C0809180008062C8
:1036800080938000D0938B00C0938A007EC080918D
:103690008000886080938000D0938D00C0938C0060
:1036A00074C08091B00080688093B000C093B30074
:1036B0006CC08091B00080628093B000C093B40071
:1036C00064C080919000806880939000D0939900AE
:1036D000C09398005AC080919000806280939000BF
:1036E000D0939B00C0939A0050C080919000886056
:1036F00080939000D0939D00C0939C0046C0809121
:10370000A00080688093A0008091A0008F7B8093B0
:10371000A000D093A900C093A80037C08091A0005A
:1037200080628093A000D093AB00C093AA002DC00C
:103730008091A00088608093A000D093AD00C093DA
:10374000AC0023C080912001806880932001D09339
:103750002901C093280119C08091200180628093C3
:103760002001D0932B01C0932A010FC0809120012A
:10377000886080932001D0932D01C0932C0105C057
:10378000C038D1050CF04CCF46CFDF91CF911F91BF
:10379000089590E0FC013197E231F10508F04EC048
:1037A0008827E557FF4F8F4F0C94E33080918000BE
:1037B0008F7703C0809180008F7D80938000089573
:1037C00080918000877FF9CF84B58F7702C084B560
:1037D0008F7D84BD08958091B0008F7703C0809164
:1037E000B0008F7D8093B0000895809190008F7716
:1037F00007C0809190008F7D03C080919000877FEB
:103800008093900008958091A0008F7707C08091E9
:10381000A0008F7D03C08091A000877F8093A000CF
:103820000895809120018F7707C0809120018F7DBE
:1038300003C080912001877F809320010895CF935A
:10384000DF9390E0FC01E056FE4F2491FC01EA5129
:10385000FE4F8491882361F190E0880F991FFC014D
:10386000EA5BFD4FC591D491FC01E45DFD4FA5914C
:10387000B491611109C09FB7F89488812095822383
:103880008883EC912E230BC0623061F49FB7F894CB
:103890003881822F809583238883EC912E2B2C9363
:1038A0009FBF06C08FB7F894E8812E2B28838FBF67
:1038B000DF91CF9108951F93CF93DF93282F30E0AE
:1038C000F901E65AFE4F8491F901E056FE4FD4917A
:1038D000F901EA51FE4FC491CC23C1F0162F81119A
:1038E00058DFEC2FF0E0EE0FFF1FE45DFD4FA591D8
:1038F000B4918FB7F894111105C09C91ED2FE0950C
:10390000E92302C0EC91ED2BEC938FBFDF91CF91B7
:103910001F910895FC01918D228D892F90E0805C8C
:103920009F4F821B91098F7399270895FC01918DF8
:10393000828D981731F0828DE80FF11D858D90E012
:1039400008958FEF9FEF0895FC01918D828D981758
:1039500061F0828DDF01A80FB11D5D968C91928D73
:103960009F5F9F73928F90E008958FEF9FEF089570
:10397000FC01848DDF01A80FB11DA35ABF4F2C910C
:10398000848D90E001968F739927848FA689B789DB
:103990002C93A089B1898C9180648C93938D848DB4
:1039A000981306C00288F389E02D80818F7D808383
:1039B0000895CF93DF93EC01888D8823C1F0EA89C5
:1039C000FB89808185FD05C0A889B9898C9186FD18
:1039D0000EC00FB607FCF5CF808185FFF2CFA88916
:1039E000B9898C9185FFEDCFCE01C2DFE8CFDF91A1
:1039F000CF910895EF92FF920F931F93CF93DF9390
:103A0000EC0181E0888F9B8D8C8D981305C0E8892F
:103A1000F989808185FD23C0F62E0B8D10E00F5FA4
:103A20001F4F0F731127E02E8C8DE8120BC00FB6BD
:103A300007FCFACFE889F989808185FFF5CFCE01AF
:103A400097DFF2CF8B8DFE01E80FF11DE35AFF4F98
:103A5000F0820B8FEA89FB898081806207C0EE8942
:103A6000FF896083E889F98980818064808381E0AF
:103A700090E0DF91CF911F910F91FF90EF9008950B
:103A8000CF92DF92EF92FF921F93CF93DF93EC01DF
:103A90006A017B01122FE889F98982E08083411550
:103AA000514E61057105B1F060E079E08DE390E081
:103AB000A70196010E94C130DA01C9010197A1094D
:103AC000B109B695A79597958795AC01411580E109
:103AD0005807A8F0E889F989108260E874E88EE157
:103AE00090E0A70196010E94C130BA01A90141509E
:103AF0005109610971097695679557954795EC8548
:103B0000FD855083EE85FF854083188EEC89FD8905
:103B10001083EA89FB89808180618083EA89FB893F
:103B2000808188608083EA89FB89808180688083C6
:103B3000EA89FB8980818F7D8083DF91CF911F91FE
:103B4000FF90EF90DF90CF9008951F920F920FB6E5
:103B50000F9211240BB60F922F938F939F93EF9395
:103B6000FF93E0915205F09153058081E091580553
:103B7000F091590582FD12C0908180915B058F5FA5
:103B80008F7320915C05821751F0E0915B05F0E0A6
:103B9000EE5BFA4F958F80935B0501C08081FF91AA
:103BA000EF919F918F912F910F900BBE0F900FBEB1
:103BB0000F901F9018951F920F920FB60F9211241D
:103BC0000BB60F922F933F934F935F936F937F9317
:103BD0008F939F93AF93BF93EF93FF9382E495E00E
:103BE000C7DEFF91EF91BF91AF919F918F917F9130
:103BF0006F915F914F913F912F910F900BBE0F905E
:103C00000FBE0F901F901895E2E4F5E01382128228
:103C100088EE93E0A0E0B0E084839583A683B78329
:103C200088EE93E09183808385EC90E0958784878C
:103C300084EC90E09787868780EC90E0918B808B76
:103C400081EC90E0938B828B82EC90E0958B848B5F
:103C500086EC90E0978B868B118E128E138E148ECD
:103C600008951F920F920FB60F9211240BB60F9268
:103C70002F938F939F93EF93FF93E091EF05F09134
:103C8000F0058081E091F505F091F60582FD12C006
:103C900090818091F8058F5F8F732091F9058217CD
:103CA00051F0E091F805F0E0E152FA4F958F8093E2
:103CB000F80501C08081FF91EF919F918F912F9125
:103CC0000F900BBE0F900FBE0F901F9018951F9274
:103CD0000F920FB60F9211240BB60F922F933F93B2
:103CE0004F935F936F937F938F939F93AF93BF9304
:103CF000EF93FF938FED95E03BDEFF91EF91BF9146
:103D0000AF919F918F917F916F915F914F913F9173
:103D10002F910F900BBE0F900FBE0F901F90189514
:103D2000EFEDF5E01382128288EE93E0A0E0B0E0C0
:103D300084839583A683B78388EE93E09183808301
:103D40008DEC90E0958784878CEC90E09787868750
:103D500088EC90E0918B808B89EC90E0938B828B48
:103D60008AEC90E0958B848B8EEC90E0978B868B21
:103D7000118E128E138E148E08951F920F920FB60D
:103D80000F9211240BB60F922F938F939F93EF9363
:103D9000FF93E0918C06F0918D068081E091920670
:103DA000F091930682FD12C09081809195068F5FFD
:103DB0008F7320919606821751F0E0919506F0E0FE
:103DC000E458F94F958F8093950601C08081FF914B
:103DD000EF919F918F912F910F900BBE0F900FBE7F
:103DE0000F901F9018951F920F920FB60F921124EB
:103DF0000BB60F922F933F934F935F936F937F93E5
:103E00008F939F93AF93BF93EF93FF938CE796E0CD
:103E1000AFDDFF91EF91BF91AF919F918F917F9116
:103E20006F915F914F913F912F910F900BBE0F902B
:103E30000FBE0F901F901895ECE7F6E013821282E8
:103E400088EE93E0A0E0B0E084839583A683B783F7
:103E500088EE93E09183808385ED90E09587848759
:103E600084ED90E09787868780ED90E0918B808B42
:103E700081ED90E0938B828B82ED90E0958B848B2B
:103E800086ED90E0978B868B118E128E138E148E9A
:103E900008951F920F920FB60F9211240BB60F9236
:103EA0002F938F939F93EF93FF93E0912907F091C6
:103EB0002A078081E0912F07F091300782FD12C020
:103EC0009081809132078F5F8F7320913307821723
:103ED00051F0E0913207F0E0E75EF84F958F809364
:103EE000320701C08081FF91EF919F918F912F91B7
:103EF0000F900BBE0F900FBE0F901F9018951F9242
:103F00000F920FB60F9211240BB60F922F933F937F
:103F10004F935F936F937F938F939F93AF93BF93D1
:103F2000EF93FF9389E197E023DDFF91EF91BF913C
:103F3000AF919F918F917F916F915F914F913F9141
:103F40002F910F900BBE0F900FBE0F901F901895E2
:103F5000E9E1F7E01382128288EE93E0A0E0B0E09E
:103F600084839583A683B78388EE93E091838083CF
:103F700085E391E09587848784E391E0978786873E
:103F800080E391E0918B808B81E391E0938B828B36
:103F900082E391E0958B848B86E391E0978B868B0F
:103FA000118E128E138E148E08958F929F92AF925F
:103FB000BF92CF92DF92EF92FF920F931F93CF9316
:103FC000DF937C018B016C0182E0C80ED11C47019C
:103FD000E5E08E0E911CC0E0D0E0F60161916F012A
:103FE0004AE050E0C801C6D05C016EE2C80167D06B
:103FF0008A0D9B1DC80FD91FC814D90471F74AE058
:1040000050E0F7016581C801B5D08C0F9D1FDF918D
:10401000CF911F910F91FF90EF90DF90CF90BF90C5
:10402000AF909F908F900895E6EBF7E088EF93E0D4
:104030009183808312821382148215820895CF9215
:10404000DF92EF92FF920F931F93CF93DF936C0158
:104050007A018B01C0E0D0E0CE15DF0589F0D801F0
:104060006D918D01D601ED91FC910190F081E02DD3
:10407000C6011995892B11F47E0102C02196ECCF5F
:10408000C701DF91CF911F910F91FF90EF90DF90CB
:10409000CF9008956115710579F0FB010190002022
:1040A000E9F73197AF01461B570BDC01ED91FC910D
:1040B0000280F381E02D199480E090E00895DC0106
:1040C000ED91FC910190F081E02D19944F925F9257
:1040D0006F927F92EF92FF920F931F93CF93DF9394
:1040E000CDB7DEB7A1970FB6F894DEBF0FBECDBF38
:1040F0007C01FA01CB0119A2223008F42AE08E01DA
:104100000F5D1F4F422E512C612C712CBF01A3015A
:1041100092010E94C130F901CA01015011096A30AF
:1041200014F4605D01C0695CD8016C93232B242BCF
:10413000252B61F7B801C701ADDFA1960FB6F89442
:10414000DEBF0FBECDBFDF91CF911F910F91FF90CA
:10415000EF907F906F905F904F90089521153105FB
:1041600041F4DC01ED91FC910190F081E02D642F90
:104170001994ACCF9A01462F50E060E070E0EECF8A
:104180008230A9F028F4882349F0813051F0089555
:10419000843021F1E8F0853039F1089510926E00F5
:1041A000089580916F008D7F80936F0008958091B6
:1041B00070008D7F8093700081E08093B0008091CB
:1041C000B100887F84608093B1001092B30008959D
:1041D000809171008D7F80937100089580917200AD
:1041E0008D7F809372000895809173008D7F8093FE
:1041F00073000895CF93C82F8091FA028C1307C0E3
:10420000E0E6F2E0E4918FEF8093FA0201C0EFEF75
:104210008E2FB6DF60E08C2FCF914DCB1F920F9287
:104220000FB60F9211240BB60F922F933F934F931B
:104230005F936F937F938F939F93AF93BF93EF930E
:10424000FF938091BF079091C007A091C107B091E3
:10425000C207892B8A2B8B2B51F18091BC07E091EF
:10426000BD07F091BE079081892780838091BF07A9
:104270009091C007A091C107B091C2071816190606
:104280001A061B06BCF48091BF079091C007A0914D
:10429000C107B091C2070197A109B1098093BF0777
:1042A0009093C007A093C107B093C20703C0809149
:1042B000FA02A0DFFF91EF91BF91AF919F918F9193
:1042C0007F916F915F914F913F912F910F900BBE16
:1042D0000F900FBE0F901F90189540E052EC61E0D8
:1042E00070E080E090E006D061E08DE0A8DA60E068
:1042F0008DE0E1CA8130910571F01CF4892B39F011
:1043000008958230910559F0039769F0089526E0E9
:1043100082E495E00BC026E08FED95E007C026E033
:104320008CE796E003C026E089E197E0A9CB1F92D5
:104330000F920FB60F9211240BB60F922F933F934B
:104340004F935F936F937F938F939F93AF93BF939D
:10435000EF93FF9382E19DEF9093250180932401D9
:104360008091F0079091F107019719F461E08DE0D9
:10437000A2DA0E94402DFF91EF91BF91AF919F91E2
:104380008F917F916F915F914F913F912F910F90FE
:104390000BBE0F900FBE0F901F90189582E19DEFFE
:1043A0009093250180932401A3E7B0E08C918E7F48
:1043B0008C93E0E2F1E080818C7F8083E1E2F1E0A8
:1043C0008081877E808380818360808380818B7FF2
:1043D00080838C9181608C93089581E008956F9221
:1043E0007F928F929F92AF92BF92CF92DF92EF9285
:1043F000FF920F931F93CF93DF935C017B014A01E0
:1044000001E010E00E151F0564F568018FEFC81A72
:10441000D80AE801CC0FDD1FC80DD91D688079804E
:1044200061147104E1F06AEF73E0C3010E94563237
:10443000892B19F41982188212C06DEF73E0C30141
:104440000E945632892B59F4CE14DF0441F06801E2
:10445000E2E0CE0ED11C198218821B821A828601DC
:10446000D1CF81E0F5018083B401C7010E94902C77
:10447000F5019283818380E090E0DF91CF911F91DD
:104480000F91FF90EF90DF90CF90BF90AF909F90F3
:104490008F907F906F90089583EC97E0089580E06F
:1044A00008950F931F93CF93DF938B01BA01E90116
:1044B000198218829801012E000C440B550BFC0147
:1044C000818192810E94E617019621F01983088369
:1044D00080E001C081E0DF91CF911F910F9108959D
:1044E0000F931F93CF93DF931F921F92CDB7DEB729
:1044F000FB018A01B9019E012F5F3F4FAF01FC0113
:10450000818192810E94A72C019639F089819A813C
:10451000F8019183808380E001C081E00F900F90CB
:10452000DF91CF911F910F910895FC018081089533
:104530000895089581E0FB01808380E00895089547
:104540001092ED070895FC01818192810C94872CD3
:10455000CF93DF93CDB7DEB72A970FB6F894DEBFBF
:104560000FBECDBFAC01CB0160E070E049835A8340
:104570006B837C83092E000CAA0BBB0B8D839E835F
:10458000AF83B8879E01275F3F4FAE014F5F5F4FFC
:1045900068E070E08091DC079091DD0782DF811197
:1045A00008C081E029853A852830310519F480E07A
:1045B00001C081E02A960FB6F894DEBF0FBECDBFD2
:1045C000DF91CF9108950F931F93CF93DF931F92A5
:1045D0001F92CDB7DEB78B019E012F5F3F4FAC011D
:1045E0008091DC079091DD075CDF811108C081E0DC
:1045F00029813A812017310719F480E001C081E058
:104600000F900F90DF91CF911F910F910895CF934D
:10461000DF93EC011092E0071092DF071092EC0795
:104620001092EB07AC0160E070E0CB010E945511E5
:10463000AE0161E070E080E090E00E945511809151
:10464000DC079091DD07DF91CF9179CF4F925F9298
:104650006F927F928F929F92AF92BF92CF92DF9292
:10466000EF92FF920F931F93CF93DF931F921F92AE
:10467000CDB7DEB79C016C0197FF03C087E0C80E81
:10468000D11C43E0D594C7944A95E1F7C90168E08D
:1046900070E00E94AE307C0189010E5F1F4F809157
:1046A000DA079091DB07801791070CF0DCC080914E
:1046B000D8079091D907009731F00E94AE3110923F
:1046C000DB071092DA07C8010E9419319093D907CD
:1046D0008093D807892B29F01093DB070093DA0722
:1046E000C2C0A12CB12CAC14BD040CF05EC0412C96
:1046F000512C320100E010E098012F51384FAE01EB
:104700004F5F5F4F61E070E08091DC079091DD07C3
:10471000E7DE811198C189819A812FEF421A520AEE
:10472000620A720A20E942162FE5520621E062066B
:1047300071043CF06091EB077091EC078DEE90E016
:104740002DC0080F191F0A30110551F549E050E03E
:1047500060E070E081EE97E00E94322D6091EB07FF
:104760007091EC078823C1F08091E90790E0681709
:10477000790709F0B8CF8EEE90E0EADE8091EB0782
:104780009091EC07019699279093EC078093EB07A3
:104790008FEFA81AB80AA7CF8FEE90E0D9DEA7CF87
:1047A0000A3011050CF4A8CF9ECFEF2809F44BC1B5
:1047B000C12CD12C760100E010E098012F51384F28
:1047C000AE014F5F5F4F61E070E08091DC07909138
:1047D000DD0786DE811137C189819A812FEFC21AE8
:1047E000D20AE20AF20A20E9C2162FE5D20621E037
:1047F000E206F1043CF06091EB077091EC078DEE5E
:1048000090E02AC0080F191F0A30110539F549E058
:1048100050E060E070E081EE97E00E94322D609100
:10482000EB077091EC078823A9F08091E90790E0ED
:104830006817790709F007C18EEE90E089DE809154
:10484000EB079091EC07019699279093EC078093E2
:10485000EB07F9C08FEE90E07BDEAACF0A3011059E
:104860000CF4ABCFF0C000E010E00C151D050CF00F
:1048700077C0412C512C3201A12CB12C480193E07E
:10488000880C991C9A95E1F72091D8073091D907A7
:10489000C4018A0D9B1D280F391FAE014F5F5F4F6A
:1048A00061E070E08091DC079091DD0719DE8111F5
:1048B000CAC089819A812FEF421A520A620A720A8B
:1048C00020E942162FE5520621E0620671043CF011
:1048D0006091EB077091EC078DEE90E034C0A80E6C
:1048E000B91E8AE0A816B104A9F549E050E0B40168
:1048F0008091D8079091D9070E94322D6091EB07E3
:104900007091EC078823E9F08091D8079091D9073E
:10491000FC01E80DF91D808590E06817790709F022
:10492000A4CF8EEE90E014DE8091EB079091EC071F
:10493000019699279093EC078093EB070F5F1F4F29
:1049400094CF8FEE90E004DE412C512C3201A12C4B
:10495000B12C9ACF2AE0A216B1040CF495CF85CFE2
:10496000E114F10409F46AC0680183E0CC0CDD1C99
:104970008A95E1F7812C912C540100E010E0980118
:104980002F51384FAE014F5F5F4F61E070E0809173
:10499000DC079091DD07A4DD811155C089819A81E2
:1049A0002FEF821A920AA20AB20A20E982162FE594
:1049B000920621E0A206B1043CF06091EB077091F1
:1049C000EC078DEE90E034C0080F191F0A30110576
:1049D00089F549E050E060E070E081EE97E00E94E8
:1049E000322D6091EB077091EC078823F9F08091EC
:1049F000E90790E06817790709F58EEE90E0A8DDE9
:104A00008091D8079091D907A70161EE77E08C0DCE
:104A10009D1D0E9446328091EB079091EC07019614
:104A200099279093EC078093EB0708C08FEE90E0F6
:104A30008FDDA0CF0A3011050CF4A1CF8091D807EB
:104A40009091D90702C080E090E00F900F90DF9125
:104A5000CF911F910F91FF90EF90DF90CF90BF907B
:104A6000AF909F908F907F906F905F904F90089540
:104A7000CF92DF92EF92FF920F931F93CF93DF932A
:104A80001F92CDB7DEB76C017B018A01452B31F057
:104A9000AB0160E070E0C801E1D78983B701C601CE
:104AA00057DD81110DC00115110551F0B701C80185
:104AB0008ADD811105C061E070E0CE01019683DDE1
:104AC0000F90DF91CF911F910F91FF90EF90DF90AA
:104AD000CF900895CF92DF92EF92FF92CF93DF9322
:104AE000CDB7DEB728970FB6F894DEBF0FBECDBFA7
:104AF0006B01E12CF12CC982DA82EB82FC822D83DE
:104B00003E834F835887AE014F5F5F4F68E070E090
:104B1000AFDF28960FB6F894DEBF0FBECDBFDF9192
:104B2000CF91FF90EF90DF90CF9008950F931F9358
:104B3000CF93DF93EC018B01AFDC9093DD07809383
:104B4000DC07009739F0A801BE0149DCEC01892B94
:104B500019F40BC0C9E0D4E08091DC079091DD0727
:104B6000E7DC1092DD071092DC07CE01DF91CF91D8
:104B70001F910F9108958091DC079091DD07D5CCAE
:104B80002F923F924F925F926F927F928F929F925D
:104B9000AF92BF92CF92DF92EF92FF920F931F934B
:104BA000CF93DF93CDB7DEB769970FB6F894DEBF2A
:104BB0000FBECDBF2091E007222309F426C25D8BF2
:104BC0004C8B688B798B8A8B9B8B9A01AB01BC01D8
:104BD000CE0101960E94551610E038E0232E312CAC
:104BE00089819A81181619060CF00AC21F861E8642
:104BF0001D861C8689819A81AC85BD85A817B90759
:104C00000CF0F3C1EB81FC812E853F85E20FF31F91
:104C1000208131813093D7072093D60784819581F5
:104C20009093D5078093D407428153815093D30743
:104C30004093D207468157815093D1074093D007C4
:104C4000820F931F9C01990F440B550B2E8B3F8BAA
:104C5000488F598FC12CD12C76012E893F89488DE0
:104C6000598DC216D306E406F50608F0A2C11F82CC
:104C70006091D6077091D7078B01072E000C220B8D
:104C8000330BD701C6010496A11DB11D80179107F2
:104C9000A207B30728F4E091D207F091D3070AC026
:104CA000E4E0F0E0E61BF70BEC0DFD1D8091D00772
:104CB0009091D107E80FF91F4080512C612C712C85
:104CC000D701C6010596A11DB11D80179107A20746
:104CD000B30728F4E091D207F091D3070AC0E5E0CA
:104CE000F0E0E61BF70BEC0DFD1D8091D0079091D5
:104CF000D107E80FF91F8081582AD701C60106960F
:104D0000A11DB11D80179107A207B30728F4E091F8
:104D1000D207F091D3070AC0E6E0F0E0E61BF70BFC
:104D2000EC0DFD1D8091D0079091D107E80FF91F80
:104D30008081682AD701C6010796A11DB11D801781
:104D40009107A207B30728F4E091D207F091D307A7
:104D50000AC0E7E0F0E0E61BF70BEC0DFD1D8091CB
:104D6000D0079091D107E80FF91F8081782A46017A
:104D7000570148E0840E911CA11CB11C08151905AF
:104D80002A053B0508F4B4C0C016D106E206F306B6
:104D900038F48091D2079091D3078C0D9D1D09C0E6
:104DA000C601861B970B2091D0073091D107820F47
:104DB000931F68E070E007DCE091D607F091D70719
:104DC0009F010F2E000C440B550BD301C201880D1F
:104DD000991DAA1DBB1D281739074A075B07C8F094
:104DE00082169306A406B50638F42091D2073091B6
:104DF000D307C601089609C0C1018E1B9F0B8C0DFD
:104E00009D1D2091D0073091D107820F931FB201D1
:104E100099C08601BF01685071096C197D0982161D
:104E20009306A406B50638F42091D2073091D30733
:104E3000C601089609C0C1018E1B9F0B8C0D9D1DDC
:104E40002091D0073091D107820F931FBCDB809156
:104E5000D6079091D707B101681B790B600F711FBE
:104E6000640D751D8091D0079091D107ACDB8091C6
:104E7000D6079091D707AC0148505109FA01E01BC1
:104E8000F10BAC01092E000C660B770B841695060E
:104E9000A606B70638F42091D2073091D307C60191
:104EA00008960AC09101281B390BC9018C0D9D1D64
:104EB0002091D0073091D107820F931FAF0160E09E
:104EC00070E0CCD58F832091D6073091D707A10110
:104ED000421B530B9A01200F311F240D351D40E05A
:104EE00050E0682F8091D0079091D107A3D550C092
:104EF000C016D106E206F306C8F46C197D0980914C
:104F0000D2079091D3078C0D9D1D5DDB8091D60754
:104F10009091D707B101681B790B6C0D7D1D640D55
:104F2000751D8091D0079091D1070CC0C601861BDA
:104F3000970B2091D0073091D107B201685F7F4F66
:104F4000820F931F40DB8091D6079091D707AC0169
:104F5000092E000C660B770B84169506A606B7067D
:104F600038F42091D2073091D307C60108960AC0C1
:104F7000D101A81BB90BCD018C0D9D1D2091D0072F
:104F80003091D107820F931FA20160E070E066D5D7
:104F90008F8361E070E0CE01079615DB182FB8E033
:104FA0004B0E511C611C711CC40CD51CE61CF71C5B
:104FB00054CE8C859D85880F991FED81FE81E80F69
:104FC000F91F488959896A897B89808191810E946A
:104FD00087114C855D854F5F5F4F5D874C878E8560
:104FE0009F8508969F878E8705CE2C893D894889A5
:104FF00059896A897B89CE0101960E945516F0CDA8
:10500000112319F08C899D8902DB69960FB6F894FB
:10501000DEBF0FBECDBFDF91CF911F910F91FF90EB
:10502000EF90DF90CF90BF90AF909F908F907F9048
:105030006F905F904F903F902F900895CF93DF93A4
:10504000EC01AC0160E070E0CB019ADDAE0161E003
:1050500070E080E090E0DF91CF9192CDCF9380918E
:10506000DC079091DD071BDAC82F81110BC060E0CF
:1050700070E0CB010E945D0C61E070E080E090E0A8
:105080000E945D0C8C2FCF9108950F931F9389017F
:105090009A01AB01BC018091DC079091DD0749DAF0
:1050A0001F910F9108953F924F925F926F927F925E
:1050B0008F929F92AF92BF92CF92DF92EF92FF9228
:1050C0000F931F93CF93DF93CDB7DEB767970FB6DC
:1050D000F894DEBF0FBECDBF6C017B015A018091F9
:1050E000E007882331F08091E007882309F45CC34E
:1050F0000AC060EE77E08091DC079091DD071ADA54
:10510000811152C3F0CF8091DF071A821982882360
:1051100009F46AC0E0E94E2EEFE55E2E6624639442
:10512000712C00E010E098012A53384FAE014F5F18
:105130005F4F61E070E08091DC079091DD07D0D98E
:10514000982E81114DC089819A81080F191F011570
:10515000110509F445C081E0481A51086108710839
:1051600039F46091EB077091EC078DEE90E030C060
:105170000A30110589F549E050E060E070E086EC06
:1051800097E070D46091EB077091EC078823F1F001
:105190008091CE0790E068177907D9F48EEE90E001
:1051A000D7D988E0E6ECF7E0DE01199601900D9280
:1051B0008A95E1F72091EB073091EC072F5F3F4F85
:1051C00033273093EC072093EB070AC08FEE90E073
:1051D000BFD91A82198204C00A3011050CF4A3CF7A
:1051E00081E029813A8124C000E010E078E0672E58
:1051F000712C29E030E02C0F3D1F200F311FAE0134
:105200004F5F5F4FB301601B710B8091DC07909182
:10521000DD0766D9982E29813A81811108C0020FD5
:10522000131F0115110519F00830110514F381E061
:10523000121613060CF080E09110B3C2882309F413
:10524000B3C28091DF07811104C019861A861B86BC
:105250001C8689859A85AB85BC858031910508F0CF
:10526000A3C2FC018827E356FF4F8F4FACC7D6017E
:105270001696ED91FC91179780819181A281B3815F
:1052800089839A83AB83BC83AE014F5F5F4F64E039
:1052900070E085E190E07DC18D859E85D7D900972E
:1052A00031F42FEF3FEFA90161E070E00EC0FC0187
:1052B00080809180A280B380A701C501B4010E94C3
:1052C0000011A501940160E070E08DE190E067C2FB
:1052D0008D859E85BBD9009721F42FEF3FEFA90163
:1052E00010C0DC018D909D90AD90BD90AD019501F9
:1052F0008401B701C6010E94A20DA5019401882373
:1053000019F061E070E002C060E070E08BE190E0D5
:1053100046C28D859E859AD9009721F42FEF3FEFE5
:10532000A9010FC0FC0181909190A190B190BF01A3
:10533000A5019401C6010E94A50FA501940188232F
:1053400019F061E070E002C060E070E08CE190E094
:1053500026C2D6011496ED91FC911597008111811A
:10536000F80182809380A080B18060E1462E512CAC
:10537000612C712C49825A826B827C8288E090E099
:10538000A0E0B0E08D839E83AF83B8879E012F5E3F
:105390003F4FAE014F5F5F4F68E070E08091DC07E8
:1053A0009091DD077ED8882319F000E010E0BAC0A4
:1053B00089899A890897C9F7D801ED90FC90B8E0DF
:1053C000EB0EF11CEE0CFF1CEE0CFF1CC70131D7DD
:1053D0008C01892B51F349825A826B827C82C701EE
:1053E0000F2C000CAA0BBB0B8D839E83AF83B88759
:1053F0009E012F5E3F4FAE014F5F5F4F68E070E050
:105400008091DC079091DD074CD881118BC0898990
:105410009A89089709F086C0D6011296ED91FC9101
:1054200013974081518162817381D8014D935D93BF
:105430006D937C931397448155816681778114968F
:105440004D935D936D937C9317974085518562854D
:10545000738518964D935D936D937C931B9784850C
:105460009585A685B785F80184879587A687B78730
:10547000108A118A128A138A84E090E0A0E0B0E0DA
:10548000848B958BA68BB78B8091E8029091E90273
:10549000A0E0B0E0808F918FA28FB38FC5010B2C5D
:1054A000000CAA0BBB0B848F958FA68FB78FF401CE
:1054B000D801909680E090E08A159B0554F44191C4
:1054C000519160E070E04D935D936D937D930196F3
:1054D000F3CF9E012F5E3F4FA801B7018091DC07FB
:1054E0009091DD070E94512281111CC089899A89FF
:1054F0008E159F05B9F4A70160E070E0C801AED237
:105500008B8B9E012F5E3F4FAE014D5E5F4F61E082
:1055100070E08091DC079091DD070E94512281E0CC
:105520008093DF07C80167960FB6F894DEBF0FBE01
:10553000CDBFDF91CF911F910F91FF90EF90DF9042
:10554000CF90BF90AF909F908F907F906F905F9023
:105550004F903F9003C78D859E85AF85B889009792
:10556000A105B10521F481E08093DE071DC16ED84D
:10557000009789F481E090E0A0E0B0E089839A830D
:10558000AB83BC83AE014F5F5F4F64E070E082E1AC
:1055900090E06EDA09C1BC01C6010E94B00B19820D
:1055A0001A821B821C82AE014F5F5F4F64E070E085
:1055B00082E190E05DDA8111F7C0D5CFD601149673
:1055C000ED91FC9115970190F081E02D00851185FA
:1055D0008FEF89830115110509F472C0D8016D9010
:1055E0007C90A280B38020E030E060E070E080E05A
:1055F00090E0861597050CF5F801A281B381A20F02
:10560000B31F1296ED91FC911397EE0FFF1FEA0D59
:10561000FB1D0190F081E02D16960D90BC91A02D00
:10562000EA9FA001EB9F500DFA9F500D1124640FCB
:10563000751F0196285F3F4FDCCF83E190E00E9409
:10564000A8228111B1C0C12CD12CE12CF12CE6147F
:10565000F7047CF5D8011296ED91FC911397EC0DAF
:10566000FD1D80809180A281B381AA0FBB1FAA0D6E
:10567000BB1D2D913C9186819781289F2001299FF8
:10568000500C389F500C1124B201C4010E94E32237
:10569000382E920140E050E06981C401CBD189836A
:1056A000B8E0CB0ED11C31107FC0EFEFEE1AFE0A2E
:1056B000CECF61E070E0CE0101960E94E32274C07B
:1056C00060E070E083E190E00E94A8226DC040E0BD
:1056D00050E060E070E081E190E0CAD9811164C0DF
:1056E000812C912C5401C501B4010E94890D809137
:1056F0003605882321F0A701C501B40141DAA701CD
:10570000C501B4010E94890C8A9489288A288B28B3
:1057100029F0812C912C54018394E5CF1092E0075D
:105720001092DF071092EC071092EB078091DC07D4
:105730009091DD070E94A02237C081E090E0909315
:1057400038058093370540E050E060E070E086E186
:1057500090E01FCF81E0D5018C9326C08D859E857A
:105760000E942623009731F42FEF3FEFA90161E05B
:1057700070E013C0FC012081318142815381CA0154
:10578000B9012C8B3D8B4E8B5F8B0E9460112C8955
:105790003D894E895F8960E070E08EE190E09AD9A2
:1057A00003C0C7010E94072367960FB6F894DEBFB7
:1057B0000FBECDBFDF91CF911F910F91FF90EF9062
:1057C000DF90CF90BF90AF909F908F907F906F9021
:1057D0005F904F903F900895CF92DF92EF92FF92AB
:1057E000CF93DF93EC01C12CD12C7601C701B60118
:1057F0000E94890DAE01C701B601C2D9AE01C70131
:10580000B6010E94890C8091D8079091D907009722
:1058100029F0A4D51092D9071092D807CA94CD28A0
:10582000CE28CF2829F0C12CD12C7601C394DECF0D
:105830008091DF07882359F040E050E060E070E09D
:1058400084E190E015D9F82E1092DF0701C0F12C09
:105850008091E007882341F01092E00781E090E01A
:105860009093E9028093E8028091DC079091DD0734
:105870000E94A3228091DC079091DD070E9498226C
:105880008F2DDF91CF91FF90EF90DF90CF90089513
:10589000CF93DF93EC01AC0160E070E0CB010E949C
:1058A000C615AE0161E070E080E090E0DF91CF913D
:1058B0000C94C61560E070E0CB010E94321661E0E6
:1058C00070E080E090E00C943216CF92DF92EF927D
:1058D000FF920F931F93CF93DF93EC016A017B013B
:1058E00000E010E098010E94B01101E010E020E01B
:1058F00030E0B701A601CE010E94B011DF91CF9137
:105900001F910F91FF90EF90DF90CF90089568EE78
:1059100073E080E090E00E94671A80E090E00895D4
:1059200026E040E050E16EE070E082E495E00E9405
:10593000401D82E495E00E948A1C892B29F082E4B4
:1059400095E00E94A41CF5CF80E090E00895AF920E
:10595000BF92CF92DF92EF92FF920F931F93CF935C
:10596000DF931F921F92CDB7DEB77A018901F9014B
:105970001182108282E495E069837A830E948A1CF6
:1059800069817A81892B99F15B01DD24D39485E6C5
:10599000C82E8091ED07811124C082E495E00E9419
:1059A000A41C85369105A9F7D092ED07F501C192A7
:1059B0005F01F80180819181019691838083E9CF15
:1059C00082E495E00E94A41C8F3FFFEF9F0749F0FF
:1059D000F50181935F01F8018081918101969183A6
:1059E0008083F801808191818E159F0548F380E0C6
:1059F00090E00F900F90DF91CF911F910F91FF904A
:105A0000EF90DF90CF90BF90AF9008950F931F93CA
:105A1000CF93DF93EA01890182E495E00E941F2081
:105A2000F801D183C08380E090E0DF91CF911F9196
:105A30000F910895DC01A40FB51F240F351FAD0190
:105A4000481B590B4217530738F4ED91E627F0E055
:105A5000EF59FD4F6491F3CF862F08959A01AB0162
:105A60006FEFE8CFCF93FC01E60FF71FE40FF51FB0
:105A7000C081F4DF91E0C81390E0892FCF910895A1
:105A80008091EF0791E0980F9093EF07882349F0FA
:105A900021E030E03093F1072093F0078093EF0787
:105AA000089578940E944D05F8948091EF078150F5
:105AB0008093EF070C94D617DF92EF92FF920F932B
:105AC0001F93CF93DF931F921F92CDB7DEB7FF24B2
:105AD000F394FA820E94A01A0E946D210091E203C1
